{
  "_format": "hh-sol-artifact-1",
  "contractName": "Election",
  "sourceName": "contracts/Election.sol",
  "abi": [
    {
      "inputs": [
        {
          "internalType": "uint256",
          "name": "_endTimestamp",
          "type": "uint256"
        },
        {
          "internalType": "string[]",
          "name": "_candidateNames",
          "type": "string[]"
        }
      ],
      "stateMutability": "nonpayable",
      "type": "constructor"
    },
    {
      "anonymous": false,
      "inputs": [
        {
          "indexed": false,
          "internalType": "address",
          "name": "user",
          "type": "address"
        },
        {
          "indexed": false,
          "internalType": "uint256",
          "name": "timestamp",
          "type": "uint256"
        }
      ],
      "name": "Vote",
      "type": "event"
    },
    {
      "inputs": [
        {
          "internalType": "uint256",
          "name": "",
          "type": "uint256"
        }
      ],
      "name": "candidateNames",
      "outputs": [
        {
          "internalType": "string",
          "name": "",
          "type": "string"
        }
      ],
      "stateMutability": "view",
      "type": "function"
    },
    {
      "inputs": [
        {
          "internalType": "uint256",
          "name": "candidateId",
          "type": "uint256"
        }
      ],
      "name": "castVote",
      "outputs": [],
      "stateMutability": "nonpayable",
      "type": "function"
    },
    {
      "inputs": [],
      "name": "endTimestamp",
      "outputs": [
        {
          "internalType": "uint256",
          "name": "",
          "type": "uint256"
        }
      ],
      "stateMutability": "view",
      "type": "function"
    },
    {
      "inputs": [
        {
          "internalType": "address",
          "name": "",
          "type": "address"
        }
      ],
      "name": "hasVoted",
      "outputs": [
        {
          "internalType": "bool",
          "name": "",
          "type": "bool"
        }
      ],
      "stateMutability": "view",
      "type": "function"
    },
    {
      "inputs": [
        {
          "internalType": "uint256",
          "name": "",
          "type": "uint256"
        }
      ],
      "name": "numVotes",
      "outputs": [
        {
          "internalType": "uint256",
          "name": "",
          "type": "uint256"
        }
      ],
      "stateMutability": "view",
      "type": "function"
    }
  ],
  "bytecode": "0x608060405234801561001057600080fd5b506040516110a23803806110a28339818101604052810190610032919061046f565b81600381905550806000908051906020019061004f9291906100b7565b50805167ffffffffffffffff81111561006b5761006a61023e565b5b6040519080825280602002602001820160405280156100995781602001602082028036833780820191505090505b50600190805190602001906100af929190610110565b5050506107b4565b8280548282559060005260206000209081019282156100ff579160200282015b828111156100fe5782518290816100ee91906106e2565b50916020019190600101906100d7565b5b50905061010c919061015d565b5090565b82805482825590600052602060002090810192821561014c579160200282015b8281111561014b578251825591602001919060010190610130565b5b5090506101599190610181565b5090565b5b8082111561017d5760008181610174919061019e565b5060010161015e565b5090565b5b8082111561019a576000816000905550600101610182565b5090565b5080546101aa90610505565b6000825580601f106101bc57506101db565b601f0160209004906000526020600020908101906101da9190610181565b5b50565b6000604051905090565b600080fd5b600080fd5b6000819050919050565b610205816101f2565b811461021057600080fd5b50565b600081519050610222816101fc565b92915050565b600080fd5b6000601f19601f8301169050919050565b7f4e487b7100000000000000000000000000000000000000000000000000000000600052604160045260246000fd5b6102768261022d565b810181811067ffffffffffffffff821117156102955761029461023e565b5b80604052505050565b60006102a86101de565b90506102b4828261026d565b919050565b600067ffffffffffffffff8211156102d4576102d361023e565b5b602082029050602081019050919050565b600080fd5b600080fd5b600067ffffffffffffffff82111561030a5761030961023e565b5b6103138261022d565b9050602081019050919050565b60005b8381101561033e578082015181840152602081019050610323565b60008484015250505050565b600061035d610358846102ef565b61029e565b905082815260208101848484011115610379576103786102ea565b5b610384848285610320565b509392505050565b600082601f8301126103a1576103a0610228565b5b81516103b184826020860161034a565b91505092915050565b60006103cd6103c8846102b9565b61029e565b905080838252602082019050602084028301858111156103f0576103ef6102e5565b5b835b8181101561043757805167ffffffffffffffff81111561041557610414610228565b5b808601610422898261038c565b855260208501945050506020810190506103f2565b5050509392505050565b600082601f83011261045657610455610228565b5b81516104668482602086016103ba565b91505092915050565b60008060408385031215610486576104856101e8565b5b600061049485828601610213565b925050602083015167ffffffffffffffff8111156104b5576104b46101ed565b5b6104c185828601610441565b9150509250929050565b600081519050919050565b7f4e487b7100000000000000000000000000000000000000000000000000000000600052602260045260246000fd5b6000600282049050600182168061051d57607f821691505b6020821081036105305761052f6104d6565b5b50919050565b60008190508160005260206000209050919050565b60006020601f8301049050919050565b600082821b905092915050565b6000600883026105987fffffffffffffffffffffffffffffffffffffffffffffffffffffffffffffffff8261055b565b6105a2868361055b565b95508019841693508086168417925050509392505050565b6000819050919050565b60006105df6105da6105d5846101f2565b6105ba565b6101f2565b9050919050565b6000819050919050565b6105f9836105c4565b61060d610605826105e6565b848454610568565b825550505050565b600090565b610622610615565b61062d8184846105f0565b505050565b5b818110156106515761064660008261061a565b600181019050610633565b5050565b601f8211156106965761066781610536565b6106708461054b565b8101602085101561067f578190505b61069361068b8561054b565b830182610632565b50505b505050565b600082821c905092915050565b60006106b96000198460080261069b565b1980831691505092915050565b60006106d283836106a8565b9150826002028217905092915050565b6106eb826104cb565b67ffffffffffffffff8111156107045761070361023e565b5b61070e8254610505565b610719828285610655565b600060209050601f83116001811461074c576000841561073a578287015190505b61074485826106c6565b8655506107ac565b601f19841661075a86610536565b60005b828110156107825784890151825560018201915060208501945060208101905061075d565b8683101561079f578489015161079b601f8916826106a8565b8355505b6001600288020188555050505b505050505050565b6108df806107c36000396000f3fe608060405234801561001057600080fd5b50600436106100575760003560e01c806309eef43e1461005c5780633eb76b9c1461008c5780638287e42f146100a857806397087ce6146100d8578063a85adeab14610108575b600080fd5b6100766004803603810190610071919061045f565b610126565b60405161008391906104a7565b60405180910390f35b6100a660048036038101906100a191906104f8565b610146565b005b6100c260048036038101906100bd91906104f8565b610326565b6040516100cf91906105b5565b60405180910390f35b6100f260048036038101906100ed91906104f8565b6103d2565b6040516100ff91906105e6565b60405180910390f35b6101106103f6565b60405161011d91906105e6565b60405180910390f35b60026020528060005260406000206000915054906101000a900460ff1681565b600354421061018a576040517f08c379a000000000000000000000000000000000000000000000000000000000815260040161018190610673565b60405180910390fd5b600260003373ffffffffffffffffffffffffffffffffffffffff1673ffffffffffffffffffffffffffffffffffffffff16815260200190815260200160002060009054906101000a900460ff1615610217576040517f08c379a000000000000000000000000000000000000000000000000000000000815260040161020e906106df565b60405180910390fd5b600080549050811061025e576040517f08c379a00000000000000000000000000000000000000000000000000000000081526004016102559061074b565b60405180910390fd5b6001600260003373ffffffffffffffffffffffffffffffffffffffff1673ffffffffffffffffffffffffffffffffffffffff16815260200190815260200160002060006101000a81548160ff021916908315150217905550600181815481106102ca576102c961076b565b5b9060005260206000200160008154809291906102e5906107c9565b91905055507ff668ead05c744b9178e571d2edb452e72baf6529c8d72160e64e59b50d865bd0334260405161031b929190610820565b60405180910390a150565b6000818154811061033657600080fd5b90600052602060002001600091509050805461035190610878565b80601f016020809104026020016040519081016040528092919081815260200182805461037d90610878565b80156103ca5780601f1061039f576101008083540402835291602001916103ca565b820191906000526020600020905b8154815290600101906020018083116103ad57829003601f168201915b505050505081565b600181815481106103e257600080fd5b906000526020600020016000915090505481565b60035481565b600080fd5b600073ffffffffffffffffffffffffffffffffffffffff82169050919050565b600061042c82610401565b9050919050565b61043c81610421565b811461044757600080fd5b50565b60008135905061045981610433565b92915050565b600060208284031215610475576104746103fc565b5b60006104838482850161044a565b91505092915050565b60008115159050919050565b6104a18161048c565b82525050565b60006020820190506104bc6000830184610498565b92915050565b6000819050919050565b6104d5816104c2565b81146104e057600080fd5b50565b6000813590506104f2816104cc565b92915050565b60006020828403121561050e5761050d6103fc565b5b600061051c848285016104e3565b91505092915050565b600081519050919050565b600082825260208201905092915050565b60005b8381101561055f578082015181840152602081019050610544565b60008484015250505050565b6000601f19601f8301169050919050565b600061058782610525565b6105918185610530565b93506105a1818560208601610541565b6105aa8161056b565b840191505092915050565b600060208201905081810360008301526105cf818461057c565b905092915050565b6105e0816104c2565b82525050565b60006020820190506105fb60008301846105d7565b92915050565b7f63616e6e6f7420766f746520616674657220656c656374696f6e20686173206560008201527f6e64656400000000000000000000000000000000000000000000000000000000602082015250565b600061065d602483610530565b915061066882610601565b604082019050919050565b6000602082019050818103600083015261068c81610650565b9050919050565b7f757365722068617320616c726561647920766f74656400000000000000000000600082015250565b60006106c9601683610530565b91506106d482610693565b602082019050919050565b600060208201905081810360008301526106f8816106bc565b9050919050565b7f696e76616c69642063616e646964617465000000000000000000000000000000600082015250565b6000610735601183610530565b9150610740826106ff565b602082019050919050565b6000602082019050818103600083015261076481610728565b9050919050565b7f4e487b7100000000000000000000000000000000000000000000000000000000600052603260045260246000fd5b7f4e487b7100000000000000000000000000000000000000000000000000000000600052601160045260246000fd5b60006107d4826104c2565b91507fffffffffffffffffffffffffffffffffffffffffffffffffffffffffffffffff82036108065761080561079a565b5b600182019050919050565b61081a81610421565b82525050565b60006040820190506108356000830185610811565b61084260208301846105d7565b9392505050565b7f4e487b7100000000000000000000000000000000000000000000000000000000600052602260045260246000fd5b6000600282049050600182168061089057607f821691505b6020821081036108a3576108a2610849565b5b5091905056fea26469706673582212209aa2a7c2e536e121b48f87c7a822078664d10b57d3e87c0ebc913b02a92171c164736f6c634300081b0033",
  "linkReferences": {},
  "deployedLinkReferences": {}
}