{
  "_format": "hh-sol-artifact-1",
  "contractName": "Election",
  "sourceName": "contracts/Election.sol",
  "abi": [
    {
      "inputs": [
        {
          "internalType": "string[]",
          "name": "_candidateNames",
          "type": "string[]"
        },
        {
          "internalType": "uint256",
          "name": "_endTimestamp",
          "type": "uint256"
        }
      ],
      "stateMutability": "nonpayable",
      "type": "constructor"
    },
    {
      "inputs": [
        {
          "internalType": "uint256",
          "name": "",
          "type": "uint256"
        }
      ],
      "name": "candidateNames",
      "outputs": [
        {
          "internalType": "string",
          "name": "",
          "type": "string"
        }
      ],
      "stateMutability": "view",
      "type": "function"
    },
    {
      "inputs": [
        {
          "internalType": "uint256",
          "name": "_candidateId",
          "type": "uint256"
        }
      ],
      "name": "castVote",
      "outputs": [],
      "stateMutability": "nonpayable",
      "type": "function"
    },
    {
      "inputs": [],
      "name": "endTimestamp",
      "outputs": [
        {
          "internalType": "uint256",
          "name": "",
          "type": "uint256"
        }
      ],
      "stateMutability": "view",
      "type": "function"
    },
    {
      "inputs": [],
      "name": "getWinnerName",
      "outputs": [
        {
          "internalType": "string",
          "name": "",
          "type": "string"
        }
      ],
      "stateMutability": "view",
      "type": "function"
    },
    {
      "inputs": [
        {
          "internalType": "address",
          "name": "",
          "type": "address"
        }
      ],
      "name": "hasVoted",
      "outputs": [
        {
          "internalType": "bool",
          "name": "",
          "type": "bool"
        }
      ],
      "stateMutability": "view",
      "type": "function"
    },
    {
      "inputs": [],
      "name": "numCandidates",
      "outputs": [
        {
          "internalType": "uint256",
          "name": "",
          "type": "uint256"
        }
      ],
      "stateMutability": "view",
      "type": "function"
    },
    {
      "inputs": [
        {
          "internalType": "uint256",
          "name": "",
          "type": "uint256"
        }
      ],
      "name": "numVotes",
      "outputs": [
        {
          "internalType": "uint256",
          "name": "",
          "type": "uint256"
        }
      ],
      "stateMutability": "view",
      "type": "function"
    }
  ],
  "bytecode": "0x608060405234801561001057600080fd5b5060405161119238038061119283398181016040528101906100329190610478565b815160008190555081600190805190602001906100509291906100c0565b5060005467ffffffffffffffff81111561006d5761006c610211565b5b60405190808252806020026020018201604052801561009b5781602001602082028036833780820191505090505b50600290805190602001906100b1929190610119565b508060038190555050506107bd565b828054828255906000526020600020908101928215610108579160200282015b828111156101075782518290816100f791906106eb565b50916020019190600101906100e0565b5b5090506101159190610166565b5090565b828054828255906000526020600020908101928215610155579160200282015b82811115610154578251825591602001919060010190610139565b5b509050610162919061018a565b5090565b5b80821115610186576000818161017d91906101a7565b50600101610167565b5090565b5b808211156101a357600081600090555060010161018b565b5090565b5080546101b39061050e565b6000825580601f106101c557506101e4565b601f0160209004906000526020600020908101906101e3919061018a565b5b50565b6000604051905090565b600080fd5b600080fd5b600080fd5b6000601f19601f8301169050919050565b7f4e487b7100000000000000000000000000000000000000000000000000000000600052604160045260246000fd5b61024982610200565b810181811067ffffffffffffffff8211171561026857610267610211565b5b80604052505050565b600061027b6101e7565b90506102878282610240565b919050565b600067ffffffffffffffff8211156102a7576102a6610211565b5b602082029050602081019050919050565b600080fd5b600080fd5b600067ffffffffffffffff8211156102dd576102dc610211565b5b6102e682610200565b9050602081019050919050565b60005b838110156103115780820151818401526020810190506102f6565b60008484015250505050565b600061033061032b846102c2565b610271565b90508281526020810184848401111561034c5761034b6102bd565b5b6103578482856102f3565b509392505050565b600082601f830112610374576103736101fb565b5b815161038484826020860161031d565b91505092915050565b60006103a061039b8461028c565b610271565b905080838252602082019050602084028301858111156103c3576103c26102b8565b5b835b8181101561040a57805167ffffffffffffffff8111156103e8576103e76101fb565b5b8086016103f5898261035f565b855260208501945050506020810190506103c5565b5050509392505050565b600082601f830112610429576104286101fb565b5b815161043984826020860161038d565b91505092915050565b6000819050919050565b61045581610442565b811461046057600080fd5b50565b6000815190506104728161044c565b92915050565b6000806040838503121561048f5761048e6101f1565b5b600083015167ffffffffffffffff8111156104ad576104ac6101f6565b5b6104b985828601610414565b92505060206104ca85828601610463565b9150509250929050565b600081519050919050565b7f4e487b7100000000000000000000000000000000000000000000000000000000600052602260045260246000fd5b6000600282049050600182168061052657607f821691505b602082108103610539576105386104df565b5b50919050565b60008190508160005260206000209050919050565b60006020601f8301049050919050565b600082821b905092915050565b6000600883026105a17fffffffffffffffffffffffffffffffffffffffffffffffffffffffffffffffff82610564565b6105ab8683610564565b95508019841693508086168417925050509392505050565b6000819050919050565b60006105e86105e36105de84610442565b6105c3565b610442565b9050919050565b6000819050919050565b610602836105cd565b61061661060e826105ef565b848454610571565b825550505050565b600090565b61062b61061e565b6106368184846105f9565b505050565b5b8181101561065a5761064f600082610623565b60018101905061063c565b5050565b601f82111561069f576106708161053f565b61067984610554565b81016020851015610688578190505b61069c61069485610554565b83018261063b565b50505b505050565b600082821c905092915050565b60006106c2600019846008026106a4565b1980831691505092915050565b60006106db83836106b1565b9150826002028217905092915050565b6106f4826104d4565b67ffffffffffffffff81111561070d5761070c610211565b5b610717825461050e565b61072282828561065e565b600060209050601f8311600181146107555760008415610743578287015190505b61074d85826106cf565b8655506107b5565b601f1984166107638661053f565b60005b8281101561078b57848901518255600182019150602085019450602081019050610766565b868310156107a857848901516107a4601f8916826106b1565b8355505b6001600288020188555050505b505050505050565b6109c6806107cc6000396000f3fe608060405234801561001057600080fd5b506004361061007d5760003560e01c80635216509a1161005b5780635216509a146100ec5780638287e42f1461010a57806397087ce61461013a578063a85adeab1461016a5761007d565b806309eef43e146100825780632bfda515146100b25780633eb76b9c146100d0575b600080fd5b61009c600480360381019061009791906105a4565b610188565b6040516100a991906105ec565b60405180910390f35b6100ba6101a8565b6040516100c79190610697565b60405180910390f35b6100ea60048036038101906100e591906106ef565b6102c1565b005b6100f4610465565b604051610101919061072b565b60405180910390f35b610124600480360381019061011f91906106ef565b61046b565b6040516101319190610697565b60405180910390f35b610154600480360381019061014f91906106ef565b610517565b604051610161919061072b565b60405180910390f35b61017261053b565b60405161017f919061072b565b60405180910390f35b60046020528060005260406000206000915054906101000a900460ff1681565b606060008060005b6000548110156102125781600282815481106101cf576101ce610746565b5b9060005260206000200154111561020557809250600281815481106101f7576101f6610746565b5b906000526020600020015491505b80806001019150506101b0565b506001828154811061022757610226610746565b5b90600052602060002001805461023c906107a4565b80601f0160208091040260200160405190810160405280929190818152602001828054610268906107a4565b80156102b55780601f1061028a576101008083540402835291602001916102b5565b820191906000526020600020905b81548152906001019060200180831161029857829003601f168201915b50505050509250505090565b600460003373ffffffffffffffffffffffffffffffffffffffff1673ffffffffffffffffffffffffffffffffffffffff16815260200190815260200160002060009054906101000a900460ff161561034e576040517f08c379a000000000000000000000000000000000000000000000000000000000815260040161034590610821565b60405180910390fd5b6000548110610392576040517f08c379a00000000000000000000000000000000000000000000000000000000081526004016103899061088d565b60405180910390fd5b60035442106103d6576040517f08c379a00000000000000000000000000000000000000000000000000000000081526004016103cd906108f9565b60405180910390fd5b600281815481106103ea576103e9610746565b5b90600052602060002001600081548092919061040590610948565b91905055506001600460003373ffffffffffffffffffffffffffffffffffffffff1673ffffffffffffffffffffffffffffffffffffffff16815260200190815260200160002060006101000a81548160ff02191690831515021790555050565b60005481565b6001818154811061047b57600080fd5b906000526020600020016000915090508054610496906107a4565b80601f01602080910402602001604051908101604052809291908181526020018280546104c2906107a4565b801561050f5780601f106104e45761010080835404028352916020019161050f565b820191906000526020600020905b8154815290600101906020018083116104f257829003601f168201915b505050505081565b6002818154811061052757600080fd5b906000526020600020016000915090505481565b60035481565b600080fd5b600073ffffffffffffffffffffffffffffffffffffffff82169050919050565b600061057182610546565b9050919050565b61058181610566565b811461058c57600080fd5b50565b60008135905061059e81610578565b92915050565b6000602082840312156105ba576105b9610541565b5b60006105c88482850161058f565b91505092915050565b60008115159050919050565b6105e6816105d1565b82525050565b600060208201905061060160008301846105dd565b92915050565b600081519050919050565b600082825260208201905092915050565b60005b83811015610641578082015181840152602081019050610626565b60008484015250505050565b6000601f19601f8301169050919050565b600061066982610607565b6106738185610612565b9350610683818560208601610623565b61068c8161064d565b840191505092915050565b600060208201905081810360008301526106b1818461065e565b905092915050565b6000819050919050565b6106cc816106b9565b81146106d757600080fd5b50565b6000813590506106e9816106c3565b92915050565b60006020828403121561070557610704610541565b5b6000610713848285016106da565b91505092915050565b610725816106b9565b82525050565b6000602082019050610740600083018461071c565b92915050565b7f4e487b7100000000000000000000000000000000000000000000000000000000600052603260045260246000fd5b7f4e487b7100000000000000000000000000000000000000000000000000000000600052602260045260246000fd5b600060028204905060018216806107bc57607f821691505b6020821081036107cf576107ce610775565b5b50919050565b7f616464726573732068617320616c726561647920766f7465642e000000000000600082015250565b600061080b601a83610612565b9150610816826107d5565b602082019050919050565b6000602082019050818103600083015261083a816107fe565b9050919050565b7f696e76616c69642063616e6469646174652069642e0000000000000000000000600082015250565b6000610877601583610612565b915061088282610841565b602082019050919050565b600060208201905081810360008301526108a68161086a565b9050919050565b7f656c656374696f6e2068617320656e6465642e00000000000000000000000000600082015250565b60006108e3601383610612565b91506108ee826108ad565b602082019050919050565b60006020820190508181036000830152610912816108d6565b9050919050565b7f4e487b7100000000000000000000000000000000000000000000000000000000600052601160045260246000fd5b6000610953826106b9565b91507fffffffffffffffffffffffffffffffffffffffffffffffffffffffffffffffff820361098557610984610919565b5b60018201905091905056fea2646970667358221220e4d317218b2cd903d515c4f4c71092a423c35278a3c3b13e6b44fedb928fc92864736f6c634300081b0033",
  "linkReferences": {},
  "deployedLinkReferences": {}
}