{
  "_format": "hh-sol-artifact-1",
  "contractName": "Election",
  "sourceName": "contracts/Election.sol",
  "abi": [
    {
      "inputs": [
        {
          "internalType": "contract VoteToken",
          "name": "_voteToken",
          "type": "address"
        },
        {
          "internalType": "string[]",
          "name": "_candidateNames",
          "type": "string[]"
        },
        {
          "internalType": "uint256",
          "name": "_endTimestamp",
          "type": "uint256"
        }
      ],
      "stateMutability": "nonpayable",
      "type": "constructor"
    },
    {
      "inputs": [
        {
          "internalType": "uint256",
          "name": "",
          "type": "uint256"
        }
      ],
      "name": "candidateNames",
      "outputs": [
        {
          "internalType": "string",
          "name": "",
          "type": "string"
        }
      ],
      "stateMutability": "view",
      "type": "function"
    },
    {
      "inputs": [
        {
          "internalType": "uint256",
          "name": "_candidateId",
          "type": "uint256"
        }
      ],
      "name": "castVote",
      "outputs": [],
      "stateMutability": "nonpayable",
      "type": "function"
    },
    {
      "inputs": [],
      "name": "endTimestamp",
      "outputs": [
        {
          "internalType": "uint256",
          "name": "",
          "type": "uint256"
        }
      ],
      "stateMutability": "view",
      "type": "function"
    },
    {
      "inputs": [],
      "name": "getWinnerName",
      "outputs": [
        {
          "internalType": "string",
          "name": "",
          "type": "string"
        }
      ],
      "stateMutability": "view",
      "type": "function"
    },
    {
      "inputs": [],
      "name": "numCandidates",
      "outputs": [
        {
          "internalType": "uint256",
          "name": "",
          "type": "uint256"
        }
      ],
      "stateMutability": "view",
      "type": "function"
    },
    {
      "inputs": [
        {
          "internalType": "uint256",
          "name": "",
          "type": "uint256"
        }
      ],
      "name": "numVotes",
      "outputs": [
        {
          "internalType": "uint256",
          "name": "",
          "type": "uint256"
        }
      ],
      "stateMutability": "view",
      "type": "function"
    },
    {
      "inputs": [],
      "name": "voteToken",
      "outputs": [
        {
          "internalType": "contract VoteToken",
          "name": "",
          "type": "address"
        }
      ],
      "stateMutability": "view",
      "type": "function"
    }
  ],
  "bytecode": "0x608060405234801561001057600080fd5b506040516113693803806113698339818101604052810190610032919061052a565b82600460006101000a81548173ffffffffffffffffffffffffffffffffffffffff021916908373ffffffffffffffffffffffffffffffffffffffff16021790555081516000819055508160019080519060200190610091929190610102565b5060005467ffffffffffffffff8111156100ae576100ad6102c3565b5b6040519080825280602002602001820160405280156100dc5781602001602082028036833780820191505090505b50600290805190602001906100f292919061015b565b5080600381905550505050610882565b82805482825590600052602060002090810192821561014a579160200282015b8281111561014957825182908161013991906107b0565b5091602001919060010190610122565b5b50905061015791906101a8565b5090565b828054828255906000526020600020908101928215610197579160200282015b8281111561019657825182559160200191906001019061017b565b5b5090506101a491906101cc565b5090565b5b808211156101c857600081816101bf91906101e9565b506001016101a9565b5090565b5b808211156101e55760008160009055506001016101cd565b5090565b5080546101f5906105d3565b6000825580601f106102075750610226565b601f01602090049060005260206000209081019061022591906101cc565b5b50565b6000604051905090565b600080fd5b600080fd5b600073ffffffffffffffffffffffffffffffffffffffff82169050919050565b60006102688261023d565b9050919050565b600061027a8261025d565b9050919050565b61028a8161026f565b811461029557600080fd5b50565b6000815190506102a781610281565b92915050565b600080fd5b6000601f19601f8301169050919050565b7f4e487b7100000000000000000000000000000000000000000000000000000000600052604160045260246000fd5b6102fb826102b2565b810181811067ffffffffffffffff8211171561031a576103196102c3565b5b80604052505050565b600061032d610229565b905061033982826102f2565b919050565b600067ffffffffffffffff821115610359576103586102c3565b5b602082029050602081019050919050565b600080fd5b600080fd5b600067ffffffffffffffff82111561038f5761038e6102c3565b5b610398826102b2565b9050602081019050919050565b60005b838110156103c35780820151818401526020810190506103a8565b60008484015250505050565b60006103e26103dd84610374565b610323565b9050828152602081018484840111156103fe576103fd61036f565b5b6104098482856103a5565b509392505050565b600082601f830112610426576104256102ad565b5b81516104368482602086016103cf565b91505092915050565b600061045261044d8461033e565b610323565b905080838252602082019050602084028301858111156104755761047461036a565b5b835b818110156104bc57805167ffffffffffffffff81111561049a576104996102ad565b5b8086016104a78982610411565b85526020850194505050602081019050610477565b5050509392505050565b600082601f8301126104db576104da6102ad565b5b81516104eb84826020860161043f565b91505092915050565b6000819050919050565b610507816104f4565b811461051257600080fd5b50565b600081519050610524816104fe565b92915050565b60008060006060848603121561054357610542610233565b5b600061055186828701610298565b935050602084015167ffffffffffffffff81111561057257610571610238565b5b61057e868287016104c6565b925050604061058f86828701610515565b9150509250925092565b600081519050919050565b7f4e487b7100000000000000000000000000000000000000000000000000000000600052602260045260246000fd5b600060028204905060018216806105eb57607f821691505b6020821081036105fe576105fd6105a4565b5b50919050565b60008190508160005260206000209050919050565b60006020601f8301049050919050565b600082821b905092915050565b6000600883026106667fffffffffffffffffffffffffffffffffffffffffffffffffffffffffffffffff82610629565b6106708683610629565b95508019841693508086168417925050509392505050565b6000819050919050565b60006106ad6106a86106a3846104f4565b610688565b6104f4565b9050919050565b6000819050919050565b6106c783610692565b6106db6106d3826106b4565b848454610636565b825550505050565b600090565b6106f06106e3565b6106fb8184846106be565b505050565b5b8181101561071f576107146000826106e8565b600181019050610701565b5050565b601f8211156107645761073581610604565b61073e84610619565b8101602085101561074d578190505b61076161075985610619565b830182610700565b50505b505050565b600082821c905092915050565b600061078760001984600802610769565b1980831691505092915050565b60006107a08383610776565b9150826002028217905092915050565b6107b982610599565b67ffffffffffffffff8111156107d2576107d16102c3565b5b6107dc82546105d3565b6107e7828285610723565b600060209050601f83116001811461081a5760008415610808578287015190505b6108128582610794565b86555061087a565b601f19841661082886610604565b60005b828110156108505784890151825560018201915060208501945060208101905061082b565b8683101561086d5784890151610869601f891682610776565b8355505b6001600288020188555050505b505050505050565b610ad8806108916000396000f3fe608060405234801561001057600080fd5b506004361061007d5760003560e01c80635216509a1161005b5780635216509a146100da5780638287e42f146100f857806397087ce614610128578063a85adeab146101585761007d565b8063160d66ae146100825780632bfda515146100a05780633eb76b9c146100be575b600080fd5b61008a610176565b6040516100979190610644565b60405180910390f35b6100a861019c565b6040516100b591906106ef565b60405180910390f35b6100d860048036038101906100d3919061074c565b6102b5565b005b6100e26104e9565b6040516100ef9190610788565b60405180910390f35b610112600480360381019061010d919061074c565b6104ef565b60405161011f91906106ef565b60405180910390f35b610142600480360381019061013d919061074c565b61059b565b60405161014f9190610788565b60405180910390f35b6101606105bf565b60405161016d9190610788565b60405180910390f35b600460009054906101000a900473ffffffffffffffffffffffffffffffffffffffff1681565b606060008060005b6000548110156102065781600282815481106101c3576101c26107a3565b5b906000526020600020015411156101f957809250600281815481106101eb576101ea6107a3565b5b906000526020600020015491505b80806001019150506101a4565b506001828154811061021b5761021a6107a3565b5b90600052602060002001805461023090610801565b80601f016020809104026020016040519081016040528092919081815260200182805461025c90610801565b80156102a95780601f1061027e576101008083540402835291602001916102a9565b820191906000526020600020905b81548152906001019060200180831161028c57829003601f168201915b50505050509250505090565b60005481106102f9576040517f08c379a00000000000000000000000000000000000000000000000000000000081526004016102f09061087e565b60405180910390fd5b600354421061033d576040517f08c379a0000000000000000000000000000000000000000000000000000000008152600401610334906108ea565b60405180910390fd5b6000600460009054906101000a900473ffffffffffffffffffffffffffffffffffffffff1673ffffffffffffffffffffffffffffffffffffffff1663dd62ed3e33306040518363ffffffff1660e01b815260040161039c92919061092b565b602060405180830381865afa1580156103b9573d6000803e3d6000fd5b505050506040513d601f19601f820116820180604052508101906103dd9190610969565b905060008111610422576040517f08c379a0000000000000000000000000000000000000000000000000000000008152600401610419906109e2565b60405180910390fd5b60028281548110610436576104356107a3565b5b90600052602060002001600081548092919061045190610a31565b9190505550600460009054906101000a900473ffffffffffffffffffffffffffffffffffffffff1673ffffffffffffffffffffffffffffffffffffffff166379cc679033836040518363ffffffff1660e01b81526004016104b3929190610a79565b600060405180830381600087803b1580156104cd57600080fd5b505af11580156104e1573d6000803e3d6000fd5b505050505050565b60005481565b600181815481106104ff57600080fd5b90600052602060002001600091509050805461051a90610801565b80601f016020809104026020016040519081016040528092919081815260200182805461054690610801565b80156105935780601f1061056857610100808354040283529160200191610593565b820191906000526020600020905b81548152906001019060200180831161057657829003601f168201915b505050505081565b600281815481106105ab57600080fd5b906000526020600020016000915090505481565b60035481565b600073ffffffffffffffffffffffffffffffffffffffff82169050919050565b6000819050919050565b600061060a610605610600846105c5565b6105e5565b6105c5565b9050919050565b600061061c826105ef565b9050919050565b600061062e82610611565b9050919050565b61063e81610623565b82525050565b60006020820190506106596000830184610635565b92915050565b600081519050919050565b600082825260208201905092915050565b60005b8381101561069957808201518184015260208101905061067e565b60008484015250505050565b6000601f19601f8301169050919050565b60006106c18261065f565b6106cb818561066a565b93506106db81856020860161067b565b6106e4816106a5565b840191505092915050565b6000602082019050818103600083015261070981846106b6565b905092915050565b600080fd5b6000819050919050565b61072981610716565b811461073457600080fd5b50565b60008135905061074681610720565b92915050565b60006020828403121561076257610761610711565b5b600061077084828501610737565b91505092915050565b61078281610716565b82525050565b600060208201905061079d6000830184610779565b92915050565b7f4e487b7100000000000000000000000000000000000000000000000000000000600052603260045260246000fd5b7f4e487b7100000000000000000000000000000000000000000000000000000000600052602260045260246000fd5b6000600282049050600182168061081957607f821691505b60208210810361082c5761082b6107d2565b5b50919050565b7f696e76616c69642063616e6469646174652069642e0000000000000000000000600082015250565b600061086860158361066a565b915061087382610832565b602082019050919050565b600060208201905081810360008301526108978161085b565b9050919050565b7f656c656374696f6e2068617320656e6465642e00000000000000000000000000600082015250565b60006108d460138361066a565b91506108df8261089e565b602082019050919050565b60006020820190508181036000830152610903816108c7565b9050919050565b6000610915826105c5565b9050919050565b6109258161090a565b82525050565b6000604082019050610940600083018561091c565b61094d602083018461091c565b9392505050565b60008151905061096381610720565b92915050565b60006020828403121561097f5761097e610711565b5b600061098d84828501610954565b91505092915050565b7f766f746520746f6b656e20616c6c6f77616e636520746f6f206c6f772e000000600082015250565b60006109cc601d8361066a565b91506109d782610996565b602082019050919050565b600060208201905081810360008301526109fb816109bf565b9050919050565b7f4e487b7100000000000000000000000000000000000000000000000000000000600052601160045260246000fd5b6000610a3c82610716565b91507fffffffffffffffffffffffffffffffffffffffffffffffffffffffffffffffff8203610a6e57610a6d610a02565b5b600182019050919050565b6000604082019050610a8e600083018561091c565b610a9b6020830184610779565b939250505056fea26469706673582212202b494868886b3e355e1ac00e7c0220f163f9848163b2c2819c71a4a9cecec19764736f6c634300081b0033",
  "linkReferences": {},
  "deployedLinkReferences": {}
}