{
  "_format": "hh-sol-artifact-1",
  "contractName": "Election",
  "sourceName": "contracts/Election.sol",
  "abi": [
    {
      "inputs": [
        {
          "internalType": "uint256",
          "name": "_endTimestamp",
          "type": "uint256"
        },
        {
          "internalType": "string[]",
          "name": "_candidateNames",
          "type": "string[]"
        }
      ],
      "stateMutability": "nonpayable",
      "type": "constructor"
    },
    {
      "anonymous": false,
      "inputs": [
        {
          "indexed": false,
          "internalType": "address",
          "name": "user",
          "type": "address"
        },
        {
          "indexed": false,
          "internalType": "uint256",
          "name": "timestamp",
          "type": "uint256"
        }
      ],
      "name": "Vote",
      "type": "event"
    },
    {
      "inputs": [
        {
          "internalType": "uint256",
          "name": "",
          "type": "uint256"
        }
      ],
      "name": "candidateNames",
      "outputs": [
        {
          "internalType": "string",
          "name": "",
          "type": "string"
        }
      ],
      "stateMutability": "view",
      "type": "function"
    },
    {
      "inputs": [
        {
          "internalType": "uint256",
          "name": "candidateId",
          "type": "uint256"
        }
      ],
      "name": "castVote",
      "outputs": [],
      "stateMutability": "nonpayable",
      "type": "function"
    },
    {
      "inputs": [],
      "name": "endTimestamp",
      "outputs": [
        {
          "internalType": "uint256",
          "name": "",
          "type": "uint256"
        }
      ],
      "stateMutability": "view",
      "type": "function"
    },
    {
      "inputs": [
        {
          "internalType": "address",
          "name": "",
          "type": "address"
        }
      ],
      "name": "hasVoted",
      "outputs": [
        {
          "internalType": "bool",
          "name": "",
          "type": "bool"
        }
      ],
      "stateMutability": "view",
      "type": "function"
    },
    {
      "inputs": [],
      "name": "numCandidates",
      "outputs": [
        {
          "internalType": "uint256",
          "name": "",
          "type": "uint256"
        }
      ],
      "stateMutability": "view",
      "type": "function"
    },
    {
      "inputs": [
        {
          "internalType": "uint256",
          "name": "",
          "type": "uint256"
        }
      ],
      "name": "numVotes",
      "outputs": [
        {
          "internalType": "uint256",
          "name": "",
          "type": "uint256"
        }
      ],
      "stateMutability": "view",
      "type": "function"
    }
  ],
  "bytecode": "0x608060405234801561001057600080fd5b506040516110d93803806110d983398181016040528101906100329190610477565b80516000819055508160048190555080600190805190602001906100579291906100bf565b50805167ffffffffffffffff81111561007357610072610246565b5b6040519080825280602002602001820160405280156100a15781602001602082028036833780820191505090505b50600290805190602001906100b7929190610118565b5050506107bc565b828054828255906000526020600020908101928215610107579160200282015b828111156101065782518290816100f691906106ea565b50916020019190600101906100df565b5b5090506101149190610165565b5090565b828054828255906000526020600020908101928215610154579160200282015b82811115610153578251825591602001919060010190610138565b5b5090506101619190610189565b5090565b5b80821115610185576000818161017c91906101a6565b50600101610166565b5090565b5b808211156101a257600081600090555060010161018a565b5090565b5080546101b29061050d565b6000825580601f106101c457506101e3565b601f0160209004906000526020600020908101906101e29190610189565b5b50565b6000604051905090565b600080fd5b600080fd5b6000819050919050565b61020d816101fa565b811461021857600080fd5b50565b60008151905061022a81610204565b92915050565b600080fd5b6000601f19601f8301169050919050565b7f4e487b7100000000000000000000000000000000000000000000000000000000600052604160045260246000fd5b61027e82610235565b810181811067ffffffffffffffff8211171561029d5761029c610246565b5b80604052505050565b60006102b06101e6565b90506102bc8282610275565b919050565b600067ffffffffffffffff8211156102dc576102db610246565b5b602082029050602081019050919050565b600080fd5b600080fd5b600067ffffffffffffffff82111561031257610311610246565b5b61031b82610235565b9050602081019050919050565b60005b8381101561034657808201518184015260208101905061032b565b60008484015250505050565b6000610365610360846102f7565b6102a6565b905082815260208101848484011115610381576103806102f2565b5b61038c848285610328565b509392505050565b600082601f8301126103a9576103a8610230565b5b81516103b9848260208601610352565b91505092915050565b60006103d56103d0846102c1565b6102a6565b905080838252602082019050602084028301858111156103f8576103f76102ed565b5b835b8181101561043f57805167ffffffffffffffff81111561041d5761041c610230565b5b80860161042a8982610394565b855260208501945050506020810190506103fa565b5050509392505050565b600082601f83011261045e5761045d610230565b5b815161046e8482602086016103c2565b91505092915050565b6000806040838503121561048e5761048d6101f0565b5b600061049c8582860161021b565b925050602083015167ffffffffffffffff8111156104bd576104bc6101f5565b5b6104c985828601610449565b9150509250929050565b600081519050919050565b7f4e487b7100000000000000000000000000000000000000000000000000000000600052602260045260246000fd5b6000600282049050600182168061052557607f821691505b602082108103610538576105376104de565b5b50919050565b60008190508160005260206000209050919050565b60006020601f8301049050919050565b600082821b905092915050565b6000600883026105a07fffffffffffffffffffffffffffffffffffffffffffffffffffffffffffffffff82610563565b6105aa8683610563565b95508019841693508086168417925050509392505050565b6000819050919050565b60006105e76105e26105dd846101fa565b6105c2565b6101fa565b9050919050565b6000819050919050565b610601836105cc565b61061561060d826105ee565b848454610570565b825550505050565b600090565b61062a61061d565b6106358184846105f8565b505050565b5b818110156106595761064e600082610622565b60018101905061063b565b5050565b601f82111561069e5761066f8161053e565b61067884610553565b81016020851015610687578190505b61069b61069385610553565b83018261063a565b50505b505050565b600082821c905092915050565b60006106c1600019846008026106a3565b1980831691505092915050565b60006106da83836106b0565b9150826002028217905092915050565b6106f3826104d3565b67ffffffffffffffff81111561070c5761070b610246565b5b610716825461050d565b61072182828561065d565b600060209050601f8311600181146107545760008415610742578287015190505b61074c85826106ce565b8655506107b4565b601f1984166107628661053e565b60005b8281101561078a57848901518255600182019150602085019450602081019050610765565b868310156107a757848901516107a3601f8916826106b0565b8355505b6001600288020188555050505b505050505050565b61090e806107cb6000396000f3fe608060405234801561001057600080fd5b50600436106100625760003560e01c806309eef43e146100675780633eb76b9c146100975780635216509a146100b35780638287e42f146100d157806397087ce614610101578063a85adeab14610131575b600080fd5b610081600480360381019061007c919061048e565b61014f565b60405161008e91906104d6565b60405180910390f35b6100b160048036038101906100ac9190610527565b61016f565b005b6100bb61034f565b6040516100c89190610563565b60405180910390f35b6100eb60048036038101906100e69190610527565b610355565b6040516100f8919061060e565b60405180910390f35b61011b60048036038101906101169190610527565b610401565b6040516101289190610563565b60405180910390f35b610139610425565b6040516101469190610563565b60405180910390f35b60036020528060005260406000206000915054906101000a900460ff1681565b60045442106101b3576040517f08c379a00000000000000000000000000000000000000000000000000000000081526004016101aa906106a2565b60405180910390fd5b600360003373ffffffffffffffffffffffffffffffffffffffff1673ffffffffffffffffffffffffffffffffffffffff16815260200190815260200160002060009054906101000a900460ff1615610240576040517f08c379a00000000000000000000000000000000000000000000000000000000081526004016102379061070e565b60405180910390fd5b6001805490508110610287576040517f08c379a000000000000000000000000000000000000000000000000000000000815260040161027e9061077a565b60405180910390fd5b6001600360003373ffffffffffffffffffffffffffffffffffffffff1673ffffffffffffffffffffffffffffffffffffffff16815260200190815260200160002060006101000a81548160ff021916908315150217905550600281815481106102f3576102f261079a565b5b90600052602060002001600081548092919061030e906107f8565b91905055507ff668ead05c744b9178e571d2edb452e72baf6529c8d72160e64e59b50d865bd0334260405161034492919061084f565b60405180910390a150565b60005481565b6001818154811061036557600080fd5b906000526020600020016000915090508054610380906108a7565b80601f01602080910402602001604051908101604052809291908181526020018280546103ac906108a7565b80156103f95780601f106103ce576101008083540402835291602001916103f9565b820191906000526020600020905b8154815290600101906020018083116103dc57829003601f168201915b505050505081565b6002818154811061041157600080fd5b906000526020600020016000915090505481565b60045481565b600080fd5b600073ffffffffffffffffffffffffffffffffffffffff82169050919050565b600061045b82610430565b9050919050565b61046b81610450565b811461047657600080fd5b50565b60008135905061048881610462565b92915050565b6000602082840312156104a4576104a361042b565b5b60006104b284828501610479565b91505092915050565b60008115159050919050565b6104d0816104bb565b82525050565b60006020820190506104eb60008301846104c7565b92915050565b6000819050919050565b610504816104f1565b811461050f57600080fd5b50565b600081359050610521816104fb565b92915050565b60006020828403121561053d5761053c61042b565b5b600061054b84828501610512565b91505092915050565b61055d816104f1565b82525050565b60006020820190506105786000830184610554565b92915050565b600081519050919050565b600082825260208201905092915050565b60005b838110156105b857808201518184015260208101905061059d565b60008484015250505050565b6000601f19601f8301169050919050565b60006105e08261057e565b6105ea8185610589565b93506105fa81856020860161059a565b610603816105c4565b840191505092915050565b6000602082019050818103600083015261062881846105d5565b905092915050565b7f63616e6e6f7420766f746520616674657220656c656374696f6e20686173206560008201527f6e64656400000000000000000000000000000000000000000000000000000000602082015250565b600061068c602483610589565b915061069782610630565b604082019050919050565b600060208201905081810360008301526106bb8161067f565b9050919050565b7f757365722068617320616c726561647920766f74656400000000000000000000600082015250565b60006106f8601683610589565b9150610703826106c2565b602082019050919050565b60006020820190508181036000830152610727816106eb565b9050919050565b7f696e76616c69642063616e646964617465000000000000000000000000000000600082015250565b6000610764601183610589565b915061076f8261072e565b602082019050919050565b6000602082019050818103600083015261079381610757565b9050919050565b7f4e487b7100000000000000000000000000000000000000000000000000000000600052603260045260246000fd5b7f4e487b7100000000000000000000000000000000000000000000000000000000600052601160045260246000fd5b6000610803826104f1565b91507fffffffffffffffffffffffffffffffffffffffffffffffffffffffffffffffff8203610835576108346107c9565b5b600182019050919050565b61084981610450565b82525050565b60006040820190506108646000830185610840565b6108716020830184610554565b9392505050565b7f4e487b7100000000000000000000000000000000000000000000000000000000600052602260045260246000fd5b600060028204905060018216806108bf57607f821691505b6020821081036108d2576108d1610878565b5b5091905056fea2646970667358221220a747ee1ad5abb8ac2a8b0be5191b9b988af8b6f71d00f42b5dee586c718fd29964736f6c634300081b0033",
  "linkReferences": {},
  "deployedLinkReferences": {}
}