{
  "_format": "hh-sol-artifact-1",
  "contractName": "Counter",
  "sourceName": "contracts/Counter.sol",
  "abi": [
    {
      "inputs": [
        {
          "internalType": "uint256",
          "name": "_initialCount",
          "type": "uint256"
        }
      ],
      "stateMutability": "nonpayable",
      "type": "constructor"
    },
    {
      "anonymous": false,
      "inputs": [
        {
          "indexed": false,
          "internalType": "uint256",
          "name": "newCount",
          "type": "uint256"
        },
        {
          "indexed": false,
          "internalType": "uint256",
          "name": "timestamp",
          "type": "uint256"
        }
      ],
      "name": "Decrement",
      "type": "event"
    },
    {
      "anonymous": false,
      "inputs": [
        {
          "indexed": false,
          "internalType": "uint256",
          "name": "newCount",
          "type": "uint256"
        },
        {
          "indexed": false,
          "internalType": "uint256",
          "name": "timestamp",
          "type": "uint256"
        }
      ],
      "name": "Increment",
      "type": "event"
    },
    {
      "inputs": [],
      "name": "count",
      "outputs": [
        {
          "internalType": "uint256",
          "name": "",
          "type": "uint256"
        }
      ],
      "stateMutability": "view",
      "type": "function"
    },
    {
      "inputs": [],
      "name": "decrement",
      "outputs": [],
      "stateMutability": "nonpayable",
      "type": "function"
    },
    {
      "inputs": [],
      "name": "increment",
      "outputs": [],
      "stateMutability": "nonpayable",
      "type": "function"
    }
  ],
  "bytecode": "0x6080604052348015600f57600080fd5b506040516102fc3803806102fc8339818101604052810190602f91906071565b80600081905550506099565b600080fd5b6000819050919050565b6051816040565b8114605b57600080fd5b50565b600081519050606b81604a565b92915050565b6000602082840312156084576083603b565b5b6000609084828501605e565b91505092915050565b610254806100a86000396000f3fe608060405234801561001057600080fd5b50600436106100415760003560e01c806306661abd146100465780632baeceb714610064578063d09de08a1461006e575b600080fd5b61004e610078565b60405161005b9190610143565b60405180910390f35b61006c61007e565b005b6100766100d4565b005b60005481565b6001600080828254610090919061018d565b925050819055507f663a79ef97024ee8403af1cc53d18ae79180658ee0217fa5be5abd3cbeb173d7600054426040516100ca9291906101c1565b60405180910390a1565b60016000808282546100e691906101ea565b925050819055507f12fae9aa25c3224f14c3c4dca03fc2ba95dced8e8fb3a7df3d77f4d3aeb6273c600054426040516101209291906101c1565b60405180910390a1565b6000819050919050565b61013d8161012a565b82525050565b60006020820190506101586000830184610134565b92915050565b7f4e487b7100000000000000000000000000000000000000000000000000000000600052601160045260246000fd5b60006101988261012a565b91506101a38361012a565b92508282039050818111156101bb576101ba61015e565b5b92915050565b60006040820190506101d66000830185610134565b6101e36020830184610134565b9392505050565b60006101f58261012a565b91506102008361012a565b92508282019050808211156102185761021761015e565b5b9291505056fea26469706673582212208b860dbcbe7f9d627341a9a00d76cd6a09e5ed895cedc12b5ba7d48638cc6ccf64736f6c634300081b0033",
  "linkReferences": {},
  "deployedLinkReferences": {}
}