{
  "contracts/Election.sol": {
    "Election": {
      "abi": [
        {
          "inputs": [
            {
              "internalType": "string[]",
              "name": "_candidateNames",
              "type": "string[]"
            },
            {
              "internalType": "uint256",
              "name": "_endTimestamp",
              "type": "uint256"
            }
          ],
          "stateMutability": "nonpayable",
          "type": "constructor"
        },
        {
          "inputs": [
            {
              "internalType": "uint256",
              "name": "",
              "type": "uint256"
            }
          ],
          "name": "candidateNames",
          "outputs": [
            {
              "internalType": "string",
              "name": "",
              "type": "string"
            }
          ],
          "stateMutability": "view",
          "type": "function"
        },
        {
          "inputs": [
            {
              "internalType": "uint256",
              "name": "_candidateId",
              "type": "uint256"
            }
          ],
          "name": "castVote",
          "outputs": [],
          "stateMutability": "nonpayable",
          "type": "function"
        },
        {
          "inputs": [],
          "name": "endTimestamp",
          "outputs": [
            {
              "internalType": "uint256",
              "name": "",
              "type": "uint256"
            }
          ],
          "stateMutability": "view",
          "type": "function"
        },
        {
          "inputs": [],
          "name": "getWinnerName",
          "outputs": [
            {
              "internalType": "string",
              "name": "",
              "type": "string"
            }
          ],
          "stateMutability": "view",
          "type": "function"
        },
        {
          "inputs": [
            {
              "internalType": "address",
              "name": "",
              "type": "address"
            }
          ],
          "name": "hasVoted",
          "outputs": [
            {
              "internalType": "bool",
              "name": "",
              "type": "bool"
            }
          ],
          "stateMutability": "view",
          "type": "function"
        },
        {
          "inputs": [],
          "name": "numCandidates",
          "outputs": [
            {
              "internalType": "uint256",
              "name": "",
              "type": "uint256"
            }
          ],
          "stateMutability": "view",
          "type": "function"
        },
        {
          "inputs": [
            {
              "internalType": "uint256",
              "name": "",
              "type": "uint256"
            }
          ],
          "name": "numVotes",
          "outputs": [
            {
              "internalType": "uint256",
              "name": "",
              "type": "uint256"
            }
          ],
          "stateMutability": "view",
          "type": "function"
        }
      ],
      "evm": {
        "bytecode": {
          "linkReferences": {},
          "object": "608060405234801561001057600080fd5b5060405161119238038061119283398181016040528101906100329190610478565b815160008190555081600190805190602001906100509291906100c0565b5060005467ffffffffffffffff81111561006d5761006c610211565b5b60405190808252806020026020018201604052801561009b5781602001602082028036833780820191505090505b50600290805190602001906100b1929190610119565b508060038190555050506107bd565b828054828255906000526020600020908101928215610108579160200282015b828111156101075782518290816100f791906106eb565b50916020019190600101906100e0565b5b5090506101159190610166565b5090565b828054828255906000526020600020908101928215610155579160200282015b82811115610154578251825591602001919060010190610139565b5b509050610162919061018a565b5090565b5b80821115610186576000818161017d91906101a7565b50600101610167565b5090565b5b808211156101a357600081600090555060010161018b565b5090565b5080546101b39061050e565b6000825580601f106101c557506101e4565b601f0160209004906000526020600020908101906101e3919061018a565b5b50565b6000604051905090565b600080fd5b600080fd5b600080fd5b6000601f19601f8301169050919050565b7f4e487b7100000000000000000000000000000000000000000000000000000000600052604160045260246000fd5b61024982610200565b810181811067ffffffffffffffff8211171561026857610267610211565b5b80604052505050565b600061027b6101e7565b90506102878282610240565b919050565b600067ffffffffffffffff8211156102a7576102a6610211565b5b602082029050602081019050919050565b600080fd5b600080fd5b600067ffffffffffffffff8211156102dd576102dc610211565b5b6102e682610200565b9050602081019050919050565b60005b838110156103115780820151818401526020810190506102f6565b60008484015250505050565b600061033061032b846102c2565b610271565b90508281526020810184848401111561034c5761034b6102bd565b5b6103578482856102f3565b509392505050565b600082601f830112610374576103736101fb565b5b815161038484826020860161031d565b91505092915050565b60006103a061039b8461028c565b610271565b905080838252602082019050602084028301858111156103c3576103c26102b8565b5b835b8181101561040a57805167ffffffffffffffff8111156103e8576103e76101fb565b5b8086016103f5898261035f565b855260208501945050506020810190506103c5565b5050509392505050565b600082601f830112610429576104286101fb565b5b815161043984826020860161038d565b91505092915050565b6000819050919050565b61045581610442565b811461046057600080fd5b50565b6000815190506104728161044c565b92915050565b6000806040838503121561048f5761048e6101f1565b5b600083015167ffffffffffffffff8111156104ad576104ac6101f6565b5b6104b985828601610414565b92505060206104ca85828601610463565b9150509250929050565b600081519050919050565b7f4e487b7100000000000000000000000000000000000000000000000000000000600052602260045260246000fd5b6000600282049050600182168061052657607f821691505b602082108103610539576105386104df565b5b50919050565b60008190508160005260206000209050919050565b60006020601f8301049050919050565b600082821b905092915050565b6000600883026105a17fffffffffffffffffffffffffffffffffffffffffffffffffffffffffffffffff82610564565b6105ab8683610564565b95508019841693508086168417925050509392505050565b6000819050919050565b60006105e86105e36105de84610442565b6105c3565b610442565b9050919050565b6000819050919050565b610602836105cd565b61061661060e826105ef565b848454610571565b825550505050565b600090565b61062b61061e565b6106368184846105f9565b505050565b5b8181101561065a5761064f600082610623565b60018101905061063c565b5050565b601f82111561069f576106708161053f565b61067984610554565b81016020851015610688578190505b61069c61069485610554565b83018261063b565b50505b505050565b600082821c905092915050565b60006106c2600019846008026106a4565b1980831691505092915050565b60006106db83836106b1565b9150826002028217905092915050565b6106f4826104d4565b67ffffffffffffffff81111561070d5761070c610211565b5b610717825461050e565b61072282828561065e565b600060209050601f8311600181146107555760008415610743578287015190505b61074d85826106cf565b8655506107b5565b601f1984166107638661053f565b60005b8281101561078b57848901518255600182019150602085019450602081019050610766565b868310156107a857848901516107a4601f8916826106b1565b8355505b6001600288020188555050505b505050505050565b6109c6806107cc6000396000f3fe608060405234801561001057600080fd5b506004361061007d5760003560e01c80635216509a1161005b5780635216509a146100ec5780638287e42f1461010a57806397087ce61461013a578063a85adeab1461016a5761007d565b806309eef43e146100825780632bfda515146100b25780633eb76b9c146100d0575b600080fd5b61009c600480360381019061009791906105a4565b610188565b6040516100a991906105ec565b60405180910390f35b6100ba6101a8565b6040516100c79190610697565b60405180910390f35b6100ea60048036038101906100e591906106ef565b6102c1565b005b6100f4610465565b604051610101919061072b565b60405180910390f35b610124600480360381019061011f91906106ef565b61046b565b6040516101319190610697565b60405180910390f35b610154600480360381019061014f91906106ef565b610517565b604051610161919061072b565b60405180910390f35b61017261053b565b60405161017f919061072b565b60405180910390f35b60046020528060005260406000206000915054906101000a900460ff1681565b606060008060005b6000548110156102125781600282815481106101cf576101ce610746565b5b9060005260206000200154111561020557809250600281815481106101f7576101f6610746565b5b906000526020600020015491505b80806001019150506101b0565b506001828154811061022757610226610746565b5b90600052602060002001805461023c906107a4565b80601f0160208091040260200160405190810160405280929190818152602001828054610268906107a4565b80156102b55780601f1061028a576101008083540402835291602001916102b5565b820191906000526020600020905b81548152906001019060200180831161029857829003601f168201915b50505050509250505090565b600460003373ffffffffffffffffffffffffffffffffffffffff1673ffffffffffffffffffffffffffffffffffffffff16815260200190815260200160002060009054906101000a900460ff161561034e576040517f08c379a000000000000000000000000000000000000000000000000000000000815260040161034590610821565b60405180910390fd5b6000548110610392576040517f08c379a00000000000000000000000000000000000000000000000000000000081526004016103899061088d565b60405180910390fd5b60035442106103d6576040517f08c379a00000000000000000000000000000000000000000000000000000000081526004016103cd906108f9565b60405180910390fd5b600281815481106103ea576103e9610746565b5b90600052602060002001600081548092919061040590610948565b91905055506001600460003373ffffffffffffffffffffffffffffffffffffffff1673ffffffffffffffffffffffffffffffffffffffff16815260200190815260200160002060006101000a81548160ff02191690831515021790555050565b60005481565b6001818154811061047b57600080fd5b906000526020600020016000915090508054610496906107a4565b80601f01602080910402602001604051908101604052809291908181526020018280546104c2906107a4565b801561050f5780601f106104e45761010080835404028352916020019161050f565b820191906000526020600020905b8154815290600101906020018083116104f257829003601f168201915b505050505081565b6002818154811061052757600080fd5b906000526020600020016000915090505481565b60035481565b600080fd5b600073ffffffffffffffffffffffffffffffffffffffff82169050919050565b600061057182610546565b9050919050565b61058181610566565b811461058c57600080fd5b50565b60008135905061059e81610578565b92915050565b6000602082840312156105ba576105b9610541565b5b60006105c88482850161058f565b91505092915050565b60008115159050919050565b6105e6816105d1565b82525050565b600060208201905061060160008301846105dd565b92915050565b600081519050919050565b600082825260208201905092915050565b60005b83811015610641578082015181840152602081019050610626565b60008484015250505050565b6000601f19601f8301169050919050565b600061066982610607565b6106738185610612565b9350610683818560208601610623565b61068c8161064d565b840191505092915050565b600060208201905081810360008301526106b1818461065e565b905092915050565b6000819050919050565b6106cc816106b9565b81146106d757600080fd5b50565b6000813590506106e9816106c3565b92915050565b60006020828403121561070557610704610541565b5b6000610713848285016106da565b91505092915050565b610725816106b9565b82525050565b6000602082019050610740600083018461071c565b92915050565b7f4e487b7100000000000000000000000000000000000000000000000000000000600052603260045260246000fd5b7f4e487b7100000000000000000000000000000000000000000000000000000000600052602260045260246000fd5b600060028204905060018216806107bc57607f821691505b6020821081036107cf576107ce610775565b5b50919050565b7f616464726573732068617320616c726561647920766f7465642e000000000000600082015250565b600061080b601a83610612565b9150610816826107d5565b602082019050919050565b6000602082019050818103600083015261083a816107fe565b9050919050565b7f696e76616c69642063616e6469646174652069642e0000000000000000000000600082015250565b6000610877601583610612565b915061088282610841565b602082019050919050565b600060208201905081810360008301526108a68161086a565b9050919050565b7f656c656374696f6e2068617320656e6465642e00000000000000000000000000600082015250565b60006108e3601383610612565b91506108ee826108ad565b602082019050919050565b60006020820190508181036000830152610912816108d6565b9050919050565b7f4e487b7100000000000000000000000000000000000000000000000000000000600052601160045260246000fd5b6000610953826106b9565b91507fffffffffffffffffffffffffffffffffffffffffffffffffffffffffffffffff820361098557610984610919565b5b60018201905091905056fea2646970667358221220e4d317218b2cd903d515c4f4c71092a423c35278a3c3b13e6b44fedb928fc92864736f6c634300081b0033",
          "opcodes": "PUSH1 0x80 PUSH1 0x40 MSTORE CALLVALUE DUP1 ISZERO PUSH2 0x10 JUMPI PUSH1 0x0 DUP1 REVERT JUMPDEST POP PUSH1 0x40 MLOAD PUSH2 0x1192 CODESIZE SUB DUP1 PUSH2 0x1192 DUP4 CODECOPY DUP2 DUP2 ADD PUSH1 0x40 MSTORE DUP2 ADD SWAP1 PUSH2 0x32 SWAP2 SWAP1 PUSH2 0x478 JUMP JUMPDEST DUP2 MLOAD PUSH1 0x0 DUP2 SWAP1 SSTORE POP DUP2 PUSH1 0x1 SWAP1 DUP1 MLOAD SWAP1 PUSH1 0x20 ADD SWAP1 PUSH2 0x50 SWAP3 SWAP2 SWAP1 PUSH2 0xC0 JUMP JUMPDEST POP PUSH1 0x0 SLOAD PUSH8 0xFFFFFFFFFFFFFFFF DUP2 GT ISZERO PUSH2 0x6D JUMPI PUSH2 0x6C PUSH2 0x211 JUMP JUMPDEST JUMPDEST PUSH1 0x40 MLOAD SWAP1 DUP1 DUP3 MSTORE DUP1 PUSH1 0x20 MUL PUSH1 0x20 ADD DUP3 ADD PUSH1 0x40 MSTORE DUP1 ISZERO PUSH2 0x9B JUMPI DUP2 PUSH1 0x20 ADD PUSH1 0x20 DUP3 MUL DUP1 CALLDATASIZE DUP4 CALLDATACOPY DUP1 DUP3 ADD SWAP2 POP POP SWAP1 POP JUMPDEST POP PUSH1 0x2 SWAP1 DUP1 MLOAD SWAP1 PUSH1 0x20 ADD SWAP1 PUSH2 0xB1 SWAP3 SWAP2 SWAP1 PUSH2 0x119 JUMP JUMPDEST POP DUP1 PUSH1 0x3 DUP2 SWAP1 SSTORE POP POP POP PUSH2 0x7BD JUMP JUMPDEST DUP3 DUP1 SLOAD DUP3 DUP3 SSTORE SWAP1 PUSH1 0x0 MSTORE PUSH1 0x20 PUSH1 0x0 KECCAK256 SWAP1 DUP2 ADD SWAP3 DUP3 ISZERO PUSH2 0x108 JUMPI SWAP2 PUSH1 0x20 MUL DUP3 ADD JUMPDEST DUP3 DUP2 GT ISZERO PUSH2 0x107 JUMPI DUP3 MLOAD DUP3 SWAP1 DUP2 PUSH2 0xF7 SWAP2 SWAP1 PUSH2 0x6EB JUMP JUMPDEST POP SWAP2 PUSH1 0x20 ADD SWAP2 SWAP1 PUSH1 0x1 ADD SWAP1 PUSH2 0xE0 JUMP JUMPDEST JUMPDEST POP SWAP1 POP PUSH2 0x115 SWAP2 SWAP1 PUSH2 0x166 JUMP JUMPDEST POP SWAP1 JUMP JUMPDEST DUP3 DUP1 SLOAD DUP3 DUP3 SSTORE SWAP1 PUSH1 0x0 MSTORE PUSH1 0x20 PUSH1 0x0 KECCAK256 SWAP1 DUP2 ADD SWAP3 DUP3 ISZERO PUSH2 0x155 JUMPI SWAP2 PUSH1 0x20 MUL DUP3 ADD JUMPDEST DUP3 DUP2 GT ISZERO PUSH2 0x154 JUMPI DUP3 MLOAD DUP3 SSTORE SWAP2 PUSH1 0x20 ADD SWAP2 SWAP1 PUSH1 0x1 ADD SWAP1 PUSH2 0x139 JUMP JUMPDEST JUMPDEST POP SWAP1 POP PUSH2 0x162 SWAP2 SWAP1 PUSH2 0x18A JUMP JUMPDEST POP SWAP1 JUMP JUMPDEST JUMPDEST DUP1 DUP3 GT ISZERO PUSH2 0x186 JUMPI PUSH1 0x0 DUP2 DUP2 PUSH2 0x17D SWAP2 SWAP1 PUSH2 0x1A7 JUMP JUMPDEST POP PUSH1 0x1 ADD PUSH2 0x167 JUMP JUMPDEST POP SWAP1 JUMP JUMPDEST JUMPDEST DUP1 DUP3 GT ISZERO PUSH2 0x1A3 JUMPI PUSH1 0x0 DUP2 PUSH1 0x0 SWAP1 SSTORE POP PUSH1 0x1 ADD PUSH2 0x18B JUMP JUMPDEST POP SWAP1 JUMP JUMPDEST POP DUP1 SLOAD PUSH2 0x1B3 SWAP1 PUSH2 0x50E JUMP JUMPDEST PUSH1 0x0 DUP3 SSTORE DUP1 PUSH1 0x1F LT PUSH2 0x1C5 JUMPI POP PUSH2 0x1E4 JUMP JUMPDEST PUSH1 0x1F ADD PUSH1 0x20 SWAP1 DIV SWAP1 PUSH1 0x0 MSTORE PUSH1 0x20 PUSH1 0x0 KECCAK256 SWAP1 DUP2 ADD SWAP1 PUSH2 0x1E3 SWAP2 SWAP1 PUSH2 0x18A JUMP JUMPDEST JUMPDEST POP JUMP JUMPDEST PUSH1 0x0 PUSH1 0x40 MLOAD SWAP1 POP SWAP1 JUMP JUMPDEST PUSH1 0x0 DUP1 REVERT JUMPDEST PUSH1 0x0 DUP1 REVERT JUMPDEST PUSH1 0x0 DUP1 REVERT JUMPDEST PUSH1 0x0 PUSH1 0x1F NOT PUSH1 0x1F DUP4 ADD AND SWAP1 POP SWAP2 SWAP1 POP JUMP JUMPDEST PUSH32 0x4E487B7100000000000000000000000000000000000000000000000000000000 PUSH1 0x0 MSTORE PUSH1 0x41 PUSH1 0x4 MSTORE PUSH1 0x24 PUSH1 0x0 REVERT JUMPDEST PUSH2 0x249 DUP3 PUSH2 0x200 JUMP JUMPDEST DUP2 ADD DUP2 DUP2 LT PUSH8 0xFFFFFFFFFFFFFFFF DUP3 GT OR ISZERO PUSH2 0x268 JUMPI PUSH2 0x267 PUSH2 0x211 JUMP JUMPDEST JUMPDEST DUP1 PUSH1 0x40 MSTORE POP POP POP JUMP JUMPDEST PUSH1 0x0 PUSH2 0x27B PUSH2 0x1E7 JUMP JUMPDEST SWAP1 POP PUSH2 0x287 DUP3 DUP3 PUSH2 0x240 JUMP JUMPDEST SWAP2 SWAP1 POP JUMP JUMPDEST PUSH1 0x0 PUSH8 0xFFFFFFFFFFFFFFFF DUP3 GT ISZERO PUSH2 0x2A7 JUMPI PUSH2 0x2A6 PUSH2 0x211 JUMP JUMPDEST JUMPDEST PUSH1 0x20 DUP3 MUL SWAP1 POP PUSH1 0x20 DUP2 ADD SWAP1 POP SWAP2 SWAP1 POP JUMP JUMPDEST PUSH1 0x0 DUP1 REVERT JUMPDEST PUSH1 0x0 DUP1 REVERT JUMPDEST PUSH1 0x0 PUSH8 0xFFFFFFFFFFFFFFFF DUP3 GT ISZERO PUSH2 0x2DD JUMPI PUSH2 0x2DC PUSH2 0x211 JUMP JUMPDEST JUMPDEST PUSH2 0x2E6 DUP3 PUSH2 0x200 JUMP JUMPDEST SWAP1 POP PUSH1 0x20 DUP2 ADD SWAP1 POP SWAP2 SWAP1 POP JUMP JUMPDEST PUSH1 0x0 JUMPDEST DUP4 DUP2 LT ISZERO PUSH2 0x311 JUMPI DUP1 DUP3 ADD MLOAD DUP2 DUP5 ADD MSTORE PUSH1 0x20 DUP2 ADD SWAP1 POP PUSH2 0x2F6 JUMP JUMPDEST PUSH1 0x0 DUP5 DUP5 ADD MSTORE POP POP POP POP JUMP JUMPDEST PUSH1 0x0 PUSH2 0x330 PUSH2 0x32B DUP5 PUSH2 0x2C2 JUMP JUMPDEST PUSH2 0x271 JUMP JUMPDEST SWAP1 POP DUP3 DUP2 MSTORE PUSH1 0x20 DUP2 ADD DUP5 DUP5 DUP5 ADD GT ISZERO PUSH2 0x34C JUMPI PUSH2 0x34B PUSH2 0x2BD JUMP JUMPDEST JUMPDEST PUSH2 0x357 DUP5 DUP3 DUP6 PUSH2 0x2F3 JUMP JUMPDEST POP SWAP4 SWAP3 POP POP POP JUMP JUMPDEST PUSH1 0x0 DUP3 PUSH1 0x1F DUP4 ADD SLT PUSH2 0x374 JUMPI PUSH2 0x373 PUSH2 0x1FB JUMP JUMPDEST JUMPDEST DUP2 MLOAD PUSH2 0x384 DUP5 DUP3 PUSH1 0x20 DUP7 ADD PUSH2 0x31D JUMP JUMPDEST SWAP2 POP POP SWAP3 SWAP2 POP POP JUMP JUMPDEST PUSH1 0x0 PUSH2 0x3A0 PUSH2 0x39B DUP5 PUSH2 0x28C JUMP JUMPDEST PUSH2 0x271 JUMP JUMPDEST SWAP1 POP DUP1 DUP4 DUP3 MSTORE PUSH1 0x20 DUP3 ADD SWAP1 POP PUSH1 0x20 DUP5 MUL DUP4 ADD DUP6 DUP2 GT ISZERO PUSH2 0x3C3 JUMPI PUSH2 0x3C2 PUSH2 0x2B8 JUMP JUMPDEST JUMPDEST DUP4 JUMPDEST DUP2 DUP2 LT ISZERO PUSH2 0x40A JUMPI DUP1 MLOAD PUSH8 0xFFFFFFFFFFFFFFFF DUP2 GT ISZERO PUSH2 0x3E8 JUMPI PUSH2 0x3E7 PUSH2 0x1FB JUMP JUMPDEST JUMPDEST DUP1 DUP7 ADD PUSH2 0x3F5 DUP10 DUP3 PUSH2 0x35F JUMP JUMPDEST DUP6 MSTORE PUSH1 0x20 DUP6 ADD SWAP5 POP POP POP PUSH1 0x20 DUP2 ADD SWAP1 POP PUSH2 0x3C5 JUMP JUMPDEST POP POP POP SWAP4 SWAP3 POP POP POP JUMP JUMPDEST PUSH1 0x0 DUP3 PUSH1 0x1F DUP4 ADD SLT PUSH2 0x429 JUMPI PUSH2 0x428 PUSH2 0x1FB JUMP JUMPDEST JUMPDEST DUP2 MLOAD PUSH2 0x439 DUP5 DUP3 PUSH1 0x20 DUP7 ADD PUSH2 0x38D JUMP JUMPDEST SWAP2 POP POP SWAP3 SWAP2 POP POP JUMP JUMPDEST PUSH1 0x0 DUP2 SWAP1 POP SWAP2 SWAP1 POP JUMP JUMPDEST PUSH2 0x455 DUP2 PUSH2 0x442 JUMP JUMPDEST DUP2 EQ PUSH2 0x460 JUMPI PUSH1 0x0 DUP1 REVERT JUMPDEST POP JUMP JUMPDEST PUSH1 0x0 DUP2 MLOAD SWAP1 POP PUSH2 0x472 DUP2 PUSH2 0x44C JUMP JUMPDEST SWAP3 SWAP2 POP POP JUMP JUMPDEST PUSH1 0x0 DUP1 PUSH1 0x40 DUP4 DUP6 SUB SLT ISZERO PUSH2 0x48F JUMPI PUSH2 0x48E PUSH2 0x1F1 JUMP JUMPDEST JUMPDEST PUSH1 0x0 DUP4 ADD MLOAD PUSH8 0xFFFFFFFFFFFFFFFF DUP2 GT ISZERO PUSH2 0x4AD JUMPI PUSH2 0x4AC PUSH2 0x1F6 JUMP JUMPDEST JUMPDEST PUSH2 0x4B9 DUP6 DUP3 DUP7 ADD PUSH2 0x414 JUMP JUMPDEST SWAP3 POP POP PUSH1 0x20 PUSH2 0x4CA DUP6 DUP3 DUP7 ADD PUSH2 0x463 JUMP JUMPDEST SWAP2 POP POP SWAP3 POP SWAP3 SWAP1 POP JUMP JUMPDEST PUSH1 0x0 DUP2 MLOAD SWAP1 POP SWAP2 SWAP1 POP JUMP JUMPDEST PUSH32 0x4E487B7100000000000000000000000000000000000000000000000000000000 PUSH1 0x0 MSTORE PUSH1 0x22 PUSH1 0x4 MSTORE PUSH1 0x24 PUSH1 0x0 REVERT JUMPDEST PUSH1 0x0 PUSH1 0x2 DUP3 DIV SWAP1 POP PUSH1 0x1 DUP3 AND DUP1 PUSH2 0x526 JUMPI PUSH1 0x7F DUP3 AND SWAP2 POP JUMPDEST PUSH1 0x20 DUP3 LT DUP2 SUB PUSH2 0x539 JUMPI PUSH2 0x538 PUSH2 0x4DF JUMP JUMPDEST JUMPDEST POP SWAP2 SWAP1 POP JUMP JUMPDEST PUSH1 0x0 DUP2 SWAP1 POP DUP2 PUSH1 0x0 MSTORE PUSH1 0x20 PUSH1 0x0 KECCAK256 SWAP1 POP SWAP2 SWAP1 POP JUMP JUMPDEST PUSH1 0x0 PUSH1 0x20 PUSH1 0x1F DUP4 ADD DIV SWAP1 POP SWAP2 SWAP1 POP JUMP JUMPDEST PUSH1 0x0 DUP3 DUP3 SHL SWAP1 POP SWAP3 SWAP2 POP POP JUMP JUMPDEST PUSH1 0x0 PUSH1 0x8 DUP4 MUL PUSH2 0x5A1 PUSH32 0xFFFFFFFFFFFFFFFFFFFFFFFFFFFFFFFFFFFFFFFFFFFFFFFFFFFFFFFFFFFFFFFF DUP3 PUSH2 0x564 JUMP JUMPDEST PUSH2 0x5AB DUP7 DUP4 PUSH2 0x564 JUMP JUMPDEST SWAP6 POP DUP1 NOT DUP5 AND SWAP4 POP DUP1 DUP7 AND DUP5 OR SWAP3 POP POP POP SWAP4 SWAP3 POP POP POP JUMP JUMPDEST PUSH1 0x0 DUP2 SWAP1 POP SWAP2 SWAP1 POP JUMP JUMPDEST PUSH1 0x0 PUSH2 0x5E8 PUSH2 0x5E3 PUSH2 0x5DE DUP5 PUSH2 0x442 JUMP JUMPDEST PUSH2 0x5C3 JUMP JUMPDEST PUSH2 0x442 JUMP JUMPDEST SWAP1 POP SWAP2 SWAP1 POP JUMP JUMPDEST PUSH1 0x0 DUP2 SWAP1 POP SWAP2 SWAP1 POP JUMP JUMPDEST PUSH2 0x602 DUP4 PUSH2 0x5CD JUMP JUMPDEST PUSH2 0x616 PUSH2 0x60E DUP3 PUSH2 0x5EF JUMP JUMPDEST DUP5 DUP5 SLOAD PUSH2 0x571 JUMP JUMPDEST DUP3 SSTORE POP POP POP POP JUMP JUMPDEST PUSH1 0x0 SWAP1 JUMP JUMPDEST PUSH2 0x62B PUSH2 0x61E JUMP JUMPDEST PUSH2 0x636 DUP2 DUP5 DUP5 PUSH2 0x5F9 JUMP JUMPDEST POP POP POP JUMP JUMPDEST JUMPDEST DUP2 DUP2 LT ISZERO PUSH2 0x65A JUMPI PUSH2 0x64F PUSH1 0x0 DUP3 PUSH2 0x623 JUMP JUMPDEST PUSH1 0x1 DUP2 ADD SWAP1 POP PUSH2 0x63C JUMP JUMPDEST POP POP JUMP JUMPDEST PUSH1 0x1F DUP3 GT ISZERO PUSH2 0x69F JUMPI PUSH2 0x670 DUP2 PUSH2 0x53F JUMP JUMPDEST PUSH2 0x679 DUP5 PUSH2 0x554 JUMP JUMPDEST DUP2 ADD PUSH1 0x20 DUP6 LT ISZERO PUSH2 0x688 JUMPI DUP2 SWAP1 POP JUMPDEST PUSH2 0x69C PUSH2 0x694 DUP6 PUSH2 0x554 JUMP JUMPDEST DUP4 ADD DUP3 PUSH2 0x63B JUMP JUMPDEST POP POP JUMPDEST POP POP POP JUMP JUMPDEST PUSH1 0x0 DUP3 DUP3 SHR SWAP1 POP SWAP3 SWAP2 POP POP JUMP JUMPDEST PUSH1 0x0 PUSH2 0x6C2 PUSH1 0x0 NOT DUP5 PUSH1 0x8 MUL PUSH2 0x6A4 JUMP JUMPDEST NOT DUP1 DUP4 AND SWAP2 POP POP SWAP3 SWAP2 POP POP JUMP JUMPDEST PUSH1 0x0 PUSH2 0x6DB DUP4 DUP4 PUSH2 0x6B1 JUMP JUMPDEST SWAP2 POP DUP3 PUSH1 0x2 MUL DUP3 OR SWAP1 POP SWAP3 SWAP2 POP POP JUMP JUMPDEST PUSH2 0x6F4 DUP3 PUSH2 0x4D4 JUMP JUMPDEST PUSH8 0xFFFFFFFFFFFFFFFF DUP2 GT ISZERO PUSH2 0x70D JUMPI PUSH2 0x70C PUSH2 0x211 JUMP JUMPDEST JUMPDEST PUSH2 0x717 DUP3 SLOAD PUSH2 0x50E JUMP JUMPDEST PUSH2 0x722 DUP3 DUP3 DUP6 PUSH2 0x65E JUMP JUMPDEST PUSH1 0x0 PUSH1 0x20 SWAP1 POP PUSH1 0x1F DUP4 GT PUSH1 0x1 DUP2 EQ PUSH2 0x755 JUMPI PUSH1 0x0 DUP5 ISZERO PUSH2 0x743 JUMPI DUP3 DUP8 ADD MLOAD SWAP1 POP JUMPDEST PUSH2 0x74D DUP6 DUP3 PUSH2 0x6CF JUMP JUMPDEST DUP7 SSTORE POP PUSH2 0x7B5 JUMP JUMPDEST PUSH1 0x1F NOT DUP5 AND PUSH2 0x763 DUP7 PUSH2 0x53F JUMP JUMPDEST PUSH1 0x0 JUMPDEST DUP3 DUP2 LT ISZERO PUSH2 0x78B JUMPI DUP5 DUP10 ADD MLOAD DUP3 SSTORE PUSH1 0x1 DUP3 ADD SWAP2 POP PUSH1 0x20 DUP6 ADD SWAP5 POP PUSH1 0x20 DUP2 ADD SWAP1 POP PUSH2 0x766 JUMP JUMPDEST DUP7 DUP4 LT ISZERO PUSH2 0x7A8 JUMPI DUP5 DUP10 ADD MLOAD PUSH2 0x7A4 PUSH1 0x1F DUP10 AND DUP3 PUSH2 0x6B1 JUMP JUMPDEST DUP4 SSTORE POP JUMPDEST PUSH1 0x1 PUSH1 0x2 DUP9 MUL ADD DUP9 SSTORE POP POP POP JUMPDEST POP POP POP POP POP POP JUMP JUMPDEST PUSH2 0x9C6 DUP1 PUSH2 0x7CC PUSH1 0x0 CODECOPY PUSH1 0x0 RETURN INVALID PUSH1 0x80 PUSH1 0x40 MSTORE CALLVALUE DUP1 ISZERO PUSH2 0x10 JUMPI PUSH1 0x0 DUP1 REVERT JUMPDEST POP PUSH1 0x4 CALLDATASIZE LT PUSH2 0x7D JUMPI PUSH1 0x0 CALLDATALOAD PUSH1 0xE0 SHR DUP1 PUSH4 0x5216509A GT PUSH2 0x5B JUMPI DUP1 PUSH4 0x5216509A EQ PUSH2 0xEC JUMPI DUP1 PUSH4 0x8287E42F EQ PUSH2 0x10A JUMPI DUP1 PUSH4 0x97087CE6 EQ PUSH2 0x13A JUMPI DUP1 PUSH4 0xA85ADEAB EQ PUSH2 0x16A JUMPI PUSH2 0x7D JUMP JUMPDEST DUP1 PUSH4 0x9EEF43E EQ PUSH2 0x82 JUMPI DUP1 PUSH4 0x2BFDA515 EQ PUSH2 0xB2 JUMPI DUP1 PUSH4 0x3EB76B9C EQ PUSH2 0xD0 JUMPI JUMPDEST PUSH1 0x0 DUP1 REVERT JUMPDEST PUSH2 0x9C PUSH1 0x4 DUP1 CALLDATASIZE SUB DUP2 ADD SWAP1 PUSH2 0x97 SWAP2 SWAP1 PUSH2 0x5A4 JUMP JUMPDEST PUSH2 0x188 JUMP JUMPDEST PUSH1 0x40 MLOAD PUSH2 0xA9 SWAP2 SWAP1 PUSH2 0x5EC JUMP JUMPDEST PUSH1 0x40 MLOAD DUP1 SWAP2 SUB SWAP1 RETURN JUMPDEST PUSH2 0xBA PUSH2 0x1A8 JUMP JUMPDEST PUSH1 0x40 MLOAD PUSH2 0xC7 SWAP2 SWAP1 PUSH2 0x697 JUMP JUMPDEST PUSH1 0x40 MLOAD DUP1 SWAP2 SUB SWAP1 RETURN JUMPDEST PUSH2 0xEA PUSH1 0x4 DUP1 CALLDATASIZE SUB DUP2 ADD SWAP1 PUSH2 0xE5 SWAP2 SWAP1 PUSH2 0x6EF JUMP JUMPDEST PUSH2 0x2C1 JUMP JUMPDEST STOP JUMPDEST PUSH2 0xF4 PUSH2 0x465 JUMP JUMPDEST PUSH1 0x40 MLOAD PUSH2 0x101 SWAP2 SWAP1 PUSH2 0x72B JUMP JUMPDEST PUSH1 0x40 MLOAD DUP1 SWAP2 SUB SWAP1 RETURN JUMPDEST PUSH2 0x124 PUSH1 0x4 DUP1 CALLDATASIZE SUB DUP2 ADD SWAP1 PUSH2 0x11F SWAP2 SWAP1 PUSH2 0x6EF JUMP JUMPDEST PUSH2 0x46B JUMP JUMPDEST PUSH1 0x40 MLOAD PUSH2 0x131 SWAP2 SWAP1 PUSH2 0x697 JUMP JUMPDEST PUSH1 0x40 MLOAD DUP1 SWAP2 SUB SWAP1 RETURN JUMPDEST PUSH2 0x154 PUSH1 0x4 DUP1 CALLDATASIZE SUB DUP2 ADD SWAP1 PUSH2 0x14F SWAP2 SWAP1 PUSH2 0x6EF JUMP JUMPDEST PUSH2 0x517 JUMP JUMPDEST PUSH1 0x40 MLOAD PUSH2 0x161 SWAP2 SWAP1 PUSH2 0x72B JUMP JUMPDEST PUSH1 0x40 MLOAD DUP1 SWAP2 SUB SWAP1 RETURN JUMPDEST PUSH2 0x172 PUSH2 0x53B JUMP JUMPDEST PUSH1 0x40 MLOAD PUSH2 0x17F SWAP2 SWAP1 PUSH2 0x72B JUMP JUMPDEST PUSH1 0x40 MLOAD DUP1 SWAP2 SUB SWAP1 RETURN JUMPDEST PUSH1 0x4 PUSH1 0x20 MSTORE DUP1 PUSH1 0x0 MSTORE PUSH1 0x40 PUSH1 0x0 KECCAK256 PUSH1 0x0 SWAP2 POP SLOAD SWAP1 PUSH2 0x100 EXP SWAP1 DIV PUSH1 0xFF AND DUP2 JUMP JUMPDEST PUSH1 0x60 PUSH1 0x0 DUP1 PUSH1 0x0 JUMPDEST PUSH1 0x0 SLOAD DUP2 LT ISZERO PUSH2 0x212 JUMPI DUP2 PUSH1 0x2 DUP3 DUP2 SLOAD DUP2 LT PUSH2 0x1CF JUMPI PUSH2 0x1CE PUSH2 0x746 JUMP JUMPDEST JUMPDEST SWAP1 PUSH1 0x0 MSTORE PUSH1 0x20 PUSH1 0x0 KECCAK256 ADD SLOAD GT ISZERO PUSH2 0x205 JUMPI DUP1 SWAP3 POP PUSH1 0x2 DUP2 DUP2 SLOAD DUP2 LT PUSH2 0x1F7 JUMPI PUSH2 0x1F6 PUSH2 0x746 JUMP JUMPDEST JUMPDEST SWAP1 PUSH1 0x0 MSTORE PUSH1 0x20 PUSH1 0x0 KECCAK256 ADD SLOAD SWAP2 POP JUMPDEST DUP1 DUP1 PUSH1 0x1 ADD SWAP2 POP POP PUSH2 0x1B0 JUMP JUMPDEST POP PUSH1 0x1 DUP3 DUP2 SLOAD DUP2 LT PUSH2 0x227 JUMPI PUSH2 0x226 PUSH2 0x746 JUMP JUMPDEST JUMPDEST SWAP1 PUSH1 0x0 MSTORE PUSH1 0x20 PUSH1 0x0 KECCAK256 ADD DUP1 SLOAD PUSH2 0x23C SWAP1 PUSH2 0x7A4 JUMP JUMPDEST DUP1 PUSH1 0x1F ADD PUSH1 0x20 DUP1 SWAP2 DIV MUL PUSH1 0x20 ADD PUSH1 0x40 MLOAD SWAP1 DUP2 ADD PUSH1 0x40 MSTORE DUP1 SWAP3 SWAP2 SWAP1 DUP2 DUP2 MSTORE PUSH1 0x20 ADD DUP3 DUP1 SLOAD PUSH2 0x268 SWAP1 PUSH2 0x7A4 JUMP JUMPDEST DUP1 ISZERO PUSH2 0x2B5 JUMPI DUP1 PUSH1 0x1F LT PUSH2 0x28A JUMPI PUSH2 0x100 DUP1 DUP4 SLOAD DIV MUL DUP4 MSTORE SWAP2 PUSH1 0x20 ADD SWAP2 PUSH2 0x2B5 JUMP JUMPDEST DUP3 ADD SWAP2 SWAP1 PUSH1 0x0 MSTORE PUSH1 0x20 PUSH1 0x0 KECCAK256 SWAP1 JUMPDEST DUP2 SLOAD DUP2 MSTORE SWAP1 PUSH1 0x1 ADD SWAP1 PUSH1 0x20 ADD DUP1 DUP4 GT PUSH2 0x298 JUMPI DUP3 SWAP1 SUB PUSH1 0x1F AND DUP3 ADD SWAP2 JUMPDEST POP POP POP POP POP SWAP3 POP POP POP SWAP1 JUMP JUMPDEST PUSH1 0x4 PUSH1 0x0 CALLER PUSH20 0xFFFFFFFFFFFFFFFFFFFFFFFFFFFFFFFFFFFFFFFF AND PUSH20 0xFFFFFFFFFFFFFFFFFFFFFFFFFFFFFFFFFFFFFFFF AND DUP2 MSTORE PUSH1 0x20 ADD SWAP1 DUP2 MSTORE PUSH1 0x20 ADD PUSH1 0x0 KECCAK256 PUSH1 0x0 SWAP1 SLOAD SWAP1 PUSH2 0x100 EXP SWAP1 DIV PUSH1 0xFF AND ISZERO PUSH2 0x34E JUMPI PUSH1 0x40 MLOAD PUSH32 0x8C379A000000000000000000000000000000000000000000000000000000000 DUP2 MSTORE PUSH1 0x4 ADD PUSH2 0x345 SWAP1 PUSH2 0x821 JUMP JUMPDEST PUSH1 0x40 MLOAD DUP1 SWAP2 SUB SWAP1 REVERT JUMPDEST PUSH1 0x0 SLOAD DUP2 LT PUSH2 0x392 JUMPI PUSH1 0x40 MLOAD PUSH32 0x8C379A000000000000000000000000000000000000000000000000000000000 DUP2 MSTORE PUSH1 0x4 ADD PUSH2 0x389 SWAP1 PUSH2 0x88D JUMP JUMPDEST PUSH1 0x40 MLOAD DUP1 SWAP2 SUB SWAP1 REVERT JUMPDEST PUSH1 0x3 SLOAD TIMESTAMP LT PUSH2 0x3D6 JUMPI PUSH1 0x40 MLOAD PUSH32 0x8C379A000000000000000000000000000000000000000000000000000000000 DUP2 MSTORE PUSH1 0x4 ADD PUSH2 0x3CD SWAP1 PUSH2 0x8F9 JUMP JUMPDEST PUSH1 0x40 MLOAD DUP1 SWAP2 SUB SWAP1 REVERT JUMPDEST PUSH1 0x2 DUP2 DUP2 SLOAD DUP2 LT PUSH2 0x3EA JUMPI PUSH2 0x3E9 PUSH2 0x746 JUMP JUMPDEST JUMPDEST SWAP1 PUSH1 0x0 MSTORE PUSH1 0x20 PUSH1 0x0 KECCAK256 ADD PUSH1 0x0 DUP2 SLOAD DUP1 SWAP3 SWAP2 SWAP1 PUSH2 0x405 SWAP1 PUSH2 0x948 JUMP JUMPDEST SWAP2 SWAP1 POP SSTORE POP PUSH1 0x1 PUSH1 0x4 PUSH1 0x0 CALLER PUSH20 0xFFFFFFFFFFFFFFFFFFFFFFFFFFFFFFFFFFFFFFFF AND PUSH20 0xFFFFFFFFFFFFFFFFFFFFFFFFFFFFFFFFFFFFFFFF AND DUP2 MSTORE PUSH1 0x20 ADD SWAP1 DUP2 MSTORE PUSH1 0x20 ADD PUSH1 0x0 KECCAK256 PUSH1 0x0 PUSH2 0x100 EXP DUP2 SLOAD DUP2 PUSH1 0xFF MUL NOT AND SWAP1 DUP4 ISZERO ISZERO MUL OR SWAP1 SSTORE POP POP JUMP JUMPDEST PUSH1 0x0 SLOAD DUP2 JUMP JUMPDEST PUSH1 0x1 DUP2 DUP2 SLOAD DUP2 LT PUSH2 0x47B JUMPI PUSH1 0x0 DUP1 REVERT JUMPDEST SWAP1 PUSH1 0x0 MSTORE PUSH1 0x20 PUSH1 0x0 KECCAK256 ADD PUSH1 0x0 SWAP2 POP SWAP1 POP DUP1 SLOAD PUSH2 0x496 SWAP1 PUSH2 0x7A4 JUMP JUMPDEST DUP1 PUSH1 0x1F ADD PUSH1 0x20 DUP1 SWAP2 DIV MUL PUSH1 0x20 ADD PUSH1 0x40 MLOAD SWAP1 DUP2 ADD PUSH1 0x40 MSTORE DUP1 SWAP3 SWAP2 SWAP1 DUP2 DUP2 MSTORE PUSH1 0x20 ADD DUP3 DUP1 SLOAD PUSH2 0x4C2 SWAP1 PUSH2 0x7A4 JUMP JUMPDEST DUP1 ISZERO PUSH2 0x50F JUMPI DUP1 PUSH1 0x1F LT PUSH2 0x4E4 JUMPI PUSH2 0x100 DUP1 DUP4 SLOAD DIV MUL DUP4 MSTORE SWAP2 PUSH1 0x20 ADD SWAP2 PUSH2 0x50F JUMP JUMPDEST DUP3 ADD SWAP2 SWAP1 PUSH1 0x0 MSTORE PUSH1 0x20 PUSH1 0x0 KECCAK256 SWAP1 JUMPDEST DUP2 SLOAD DUP2 MSTORE SWAP1 PUSH1 0x1 ADD SWAP1 PUSH1 0x20 ADD DUP1 DUP4 GT PUSH2 0x4F2 JUMPI DUP3 SWAP1 SUB PUSH1 0x1F AND DUP3 ADD SWAP2 JUMPDEST POP POP POP POP POP DUP2 JUMP JUMPDEST PUSH1 0x2 DUP2 DUP2 SLOAD DUP2 LT PUSH2 0x527 JUMPI PUSH1 0x0 DUP1 REVERT JUMPDEST SWAP1 PUSH1 0x0 MSTORE PUSH1 0x20 PUSH1 0x0 KECCAK256 ADD PUSH1 0x0 SWAP2 POP SWAP1 POP SLOAD DUP2 JUMP JUMPDEST PUSH1 0x3 SLOAD DUP2 JUMP JUMPDEST PUSH1 0x0 DUP1 REVERT JUMPDEST PUSH1 0x0 PUSH20 0xFFFFFFFFFFFFFFFFFFFFFFFFFFFFFFFFFFFFFFFF DUP3 AND SWAP1 POP SWAP2 SWAP1 POP JUMP JUMPDEST PUSH1 0x0 PUSH2 0x571 DUP3 PUSH2 0x546 JUMP JUMPDEST SWAP1 POP SWAP2 SWAP1 POP JUMP JUMPDEST PUSH2 0x581 DUP2 PUSH2 0x566 JUMP JUMPDEST DUP2 EQ PUSH2 0x58C JUMPI PUSH1 0x0 DUP1 REVERT JUMPDEST POP JUMP JUMPDEST PUSH1 0x0 DUP2 CALLDATALOAD SWAP1 POP PUSH2 0x59E DUP2 PUSH2 0x578 JUMP JUMPDEST SWAP3 SWAP2 POP POP JUMP JUMPDEST PUSH1 0x0 PUSH1 0x20 DUP3 DUP5 SUB SLT ISZERO PUSH2 0x5BA JUMPI PUSH2 0x5B9 PUSH2 0x541 JUMP JUMPDEST JUMPDEST PUSH1 0x0 PUSH2 0x5C8 DUP5 DUP3 DUP6 ADD PUSH2 0x58F JUMP JUMPDEST SWAP2 POP POP SWAP3 SWAP2 POP POP JUMP JUMPDEST PUSH1 0x0 DUP2 ISZERO ISZERO SWAP1 POP SWAP2 SWAP1 POP JUMP JUMPDEST PUSH2 0x5E6 DUP2 PUSH2 0x5D1 JUMP JUMPDEST DUP3 MSTORE POP POP JUMP JUMPDEST PUSH1 0x0 PUSH1 0x20 DUP3 ADD SWAP1 POP PUSH2 0x601 PUSH1 0x0 DUP4 ADD DUP5 PUSH2 0x5DD JUMP JUMPDEST SWAP3 SWAP2 POP POP JUMP JUMPDEST PUSH1 0x0 DUP2 MLOAD SWAP1 POP SWAP2 SWAP1 POP JUMP JUMPDEST PUSH1 0x0 DUP3 DUP3 MSTORE PUSH1 0x20 DUP3 ADD SWAP1 POP SWAP3 SWAP2 POP POP JUMP JUMPDEST PUSH1 0x0 JUMPDEST DUP4 DUP2 LT ISZERO PUSH2 0x641 JUMPI DUP1 DUP3 ADD MLOAD DUP2 DUP5 ADD MSTORE PUSH1 0x20 DUP2 ADD SWAP1 POP PUSH2 0x626 JUMP JUMPDEST PUSH1 0x0 DUP5 DUP5 ADD MSTORE POP POP POP POP JUMP JUMPDEST PUSH1 0x0 PUSH1 0x1F NOT PUSH1 0x1F DUP4 ADD AND SWAP1 POP SWAP2 SWAP1 POP JUMP JUMPDEST PUSH1 0x0 PUSH2 0x669 DUP3 PUSH2 0x607 JUMP JUMPDEST PUSH2 0x673 DUP2 DUP6 PUSH2 0x612 JUMP JUMPDEST SWAP4 POP PUSH2 0x683 DUP2 DUP6 PUSH1 0x20 DUP7 ADD PUSH2 0x623 JUMP JUMPDEST PUSH2 0x68C DUP2 PUSH2 0x64D JUMP JUMPDEST DUP5 ADD SWAP2 POP POP SWAP3 SWAP2 POP POP JUMP JUMPDEST PUSH1 0x0 PUSH1 0x20 DUP3 ADD SWAP1 POP DUP2 DUP2 SUB PUSH1 0x0 DUP4 ADD MSTORE PUSH2 0x6B1 DUP2 DUP5 PUSH2 0x65E JUMP JUMPDEST SWAP1 POP SWAP3 SWAP2 POP POP JUMP JUMPDEST PUSH1 0x0 DUP2 SWAP1 POP SWAP2 SWAP1 POP JUMP JUMPDEST PUSH2 0x6CC DUP2 PUSH2 0x6B9 JUMP JUMPDEST DUP2 EQ PUSH2 0x6D7 JUMPI PUSH1 0x0 DUP1 REVERT JUMPDEST POP JUMP JUMPDEST PUSH1 0x0 DUP2 CALLDATALOAD SWAP1 POP PUSH2 0x6E9 DUP2 PUSH2 0x6C3 JUMP JUMPDEST SWAP3 SWAP2 POP POP JUMP JUMPDEST PUSH1 0x0 PUSH1 0x20 DUP3 DUP5 SUB SLT ISZERO PUSH2 0x705 JUMPI PUSH2 0x704 PUSH2 0x541 JUMP JUMPDEST JUMPDEST PUSH1 0x0 PUSH2 0x713 DUP5 DUP3 DUP6 ADD PUSH2 0x6DA JUMP JUMPDEST SWAP2 POP POP SWAP3 SWAP2 POP POP JUMP JUMPDEST PUSH2 0x725 DUP2 PUSH2 0x6B9 JUMP JUMPDEST DUP3 MSTORE POP POP JUMP JUMPDEST PUSH1 0x0 PUSH1 0x20 DUP3 ADD SWAP1 POP PUSH2 0x740 PUSH1 0x0 DUP4 ADD DUP5 PUSH2 0x71C JUMP JUMPDEST SWAP3 SWAP2 POP POP JUMP JUMPDEST PUSH32 0x4E487B7100000000000000000000000000000000000000000000000000000000 PUSH1 0x0 MSTORE PUSH1 0x32 PUSH1 0x4 MSTORE PUSH1 0x24 PUSH1 0x0 REVERT JUMPDEST PUSH32 0x4E487B7100000000000000000000000000000000000000000000000000000000 PUSH1 0x0 MSTORE PUSH1 0x22 PUSH1 0x4 MSTORE PUSH1 0x24 PUSH1 0x0 REVERT JUMPDEST PUSH1 0x0 PUSH1 0x2 DUP3 DIV SWAP1 POP PUSH1 0x1 DUP3 AND DUP1 PUSH2 0x7BC JUMPI PUSH1 0x7F DUP3 AND SWAP2 POP JUMPDEST PUSH1 0x20 DUP3 LT DUP2 SUB PUSH2 0x7CF JUMPI PUSH2 0x7CE PUSH2 0x775 JUMP JUMPDEST JUMPDEST POP SWAP2 SWAP1 POP JUMP JUMPDEST PUSH32 0x616464726573732068617320616C726561647920766F7465642E000000000000 PUSH1 0x0 DUP3 ADD MSTORE POP JUMP JUMPDEST PUSH1 0x0 PUSH2 0x80B PUSH1 0x1A DUP4 PUSH2 0x612 JUMP JUMPDEST SWAP2 POP PUSH2 0x816 DUP3 PUSH2 0x7D5 JUMP JUMPDEST PUSH1 0x20 DUP3 ADD SWAP1 POP SWAP2 SWAP1 POP JUMP JUMPDEST PUSH1 0x0 PUSH1 0x20 DUP3 ADD SWAP1 POP DUP2 DUP2 SUB PUSH1 0x0 DUP4 ADD MSTORE PUSH2 0x83A DUP2 PUSH2 0x7FE JUMP JUMPDEST SWAP1 POP SWAP2 SWAP1 POP JUMP JUMPDEST PUSH32 0x696E76616C69642063616E6469646174652069642E0000000000000000000000 PUSH1 0x0 DUP3 ADD MSTORE POP JUMP JUMPDEST PUSH1 0x0 PUSH2 0x877 PUSH1 0x15 DUP4 PUSH2 0x612 JUMP JUMPDEST SWAP2 POP PUSH2 0x882 DUP3 PUSH2 0x841 JUMP JUMPDEST PUSH1 0x20 DUP3 ADD SWAP1 POP SWAP2 SWAP1 POP JUMP JUMPDEST PUSH1 0x0 PUSH1 0x20 DUP3 ADD SWAP1 POP DUP2 DUP2 SUB PUSH1 0x0 DUP4 ADD MSTORE PUSH2 0x8A6 DUP2 PUSH2 0x86A JUMP JUMPDEST SWAP1 POP SWAP2 SWAP1 POP JUMP JUMPDEST PUSH32 0x656C656374696F6E2068617320656E6465642E00000000000000000000000000 PUSH1 0x0 DUP3 ADD MSTORE POP JUMP JUMPDEST PUSH1 0x0 PUSH2 0x8E3 PUSH1 0x13 DUP4 PUSH2 0x612 JUMP JUMPDEST SWAP2 POP PUSH2 0x8EE DUP3 PUSH2 0x8AD JUMP JUMPDEST PUSH1 0x20 DUP3 ADD SWAP1 POP SWAP2 SWAP1 POP JUMP JUMPDEST PUSH1 0x0 PUSH1 0x20 DUP3 ADD SWAP1 POP DUP2 DUP2 SUB PUSH1 0x0 DUP4 ADD MSTORE PUSH2 0x912 DUP2 PUSH2 0x8D6 JUMP JUMPDEST SWAP1 POP SWAP2 SWAP1 POP JUMP JUMPDEST PUSH32 0x4E487B7100000000000000000000000000000000000000000000000000000000 PUSH1 0x0 MSTORE PUSH1 0x11 PUSH1 0x4 MSTORE PUSH1 0x24 PUSH1 0x0 REVERT JUMPDEST PUSH1 0x0 PUSH2 0x953 DUP3 PUSH2 0x6B9 JUMP JUMPDEST SWAP2 POP PUSH32 0xFFFFFFFFFFFFFFFFFFFFFFFFFFFFFFFFFFFFFFFFFFFFFFFFFFFFFFFFFFFFFFFF DUP3 SUB PUSH2 0x985 JUMPI PUSH2 0x984 PUSH2 0x919 JUMP JUMPDEST JUMPDEST PUSH1 0x1 DUP3 ADD SWAP1 POP SWAP2 SWAP1 POP JUMP INVALID LOG2 PUSH5 0x6970667358 0x22 SLT KECCAK256 0xE4 0xD3 OR 0x21 DUP12 0x2C 0xD9 SUB 0xD5 ISZERO 0xC4 DELEGATECALL 0xC7 LT SWAP3 LOG4 0x23 0xC3 MSTORE PUSH25 0xA3C3B13E6B44FEDB928FC92864736F6C634300081B00330000 "
        },
        "methodIdentifiers": {
          "candidateNames(uint256)": "8287e42f",
          "castVote(uint256)": "3eb76b9c",
          "endTimestamp()": "a85adeab",
          "getWinnerName()": "2bfda515",
          "hasVoted(address)": "09eef43e",
          "numCandidates()": "5216509a",
          "numVotes(uint256)": "97087ce6"
        }
      }
    }
  }
}